:020000040800F2
:10000000005000209D0E00087B0300087D030008BF
:100010007F0300088103000883030008000000003C
:100020000000000000000000000000008503000840
:100030008703000800000000890300088B03000804
:10004000E50E0008E50E0008E50E0008E50E0008C4
:10005000E50E0008E50E0008E50E0008E50E0008B4
:10006000E50E0008E50E0008E50E0008E50E0008A4
:10007000E50E0008E50E0008E50E0008E50E000894
:10008000E50E0008E50E0008E50E0008E50E000884
:10009000E50E0008E50E0008E50E0008E50E000874
:1000A000E50E0008E50E0008E50E0008E50E000864
:1000B000E50E0008E50E0008E50E0008E50E000854
:1000C000E50E0008E50E0008E50E0008E50E000844
:1000D000E50E0008E50E0008E50E0008E50E000834
:1000E000E50E0008E50E0008E50E0008000000001F
:1000F0000000000000000000000000000000000000
:0C01000000000000000000005FF808F1A3
:10010C000348044B834202D0034B03B1184770479A
:10011C001000002010000020000000000548064BD5
:10012C001B1AD90F01EBA301491002D0034B03B1E9
:10013C00184770471000002010000020000000003D
:10014C0010B5064C237843B9FFF7DAFF044B13B113
:10015C000448AFF300800123237010BD1000002071
:10016C0000000000A410000808B5054B1BB10549A0
:10017C000548AFF30080BDE80840FFF7CFBF00BFD4
:10018C000000000014000020A410000884B00F4BE5
:10019C009A6942F010029A619A6902F01002019277
:1001AC00019A9A6942F004029A619A6902F0040277
:1001BC000292029A9A6942F008029A619B6903F0D2
:1001CC0008030393039B04B0704700BF0010024068
:1001DC0072B6FEE708B500F0A4F800B908BDFFF749
:1001EC00F7FF000010B500F029F9FFF7F3FFFFF758
:1001FC00CDFF0E4C204600F07DF8204600F06CF848
:10020C0000F03AF9044600F041F800F035F9001B13
:10021C00C728F8D900F01EF80028F4D000F02EF80A
:10022C000028F0D100F03AF8EDE700BFBC10000850
:10023C0000F16040B0F5A04F8CBF0020012070474A
:10024C0000F17840A0F58040B0F5E03F2CBF0020D5
:10025C000120704710B5084B5C681868FFF7E8FF81
:10026C0028B12046FFF7ECFF18B1012000E0002078
:10027C0010BD0020FCE700BF00400008024B01222B
:10028C00C3F8E0240020704700004242024B4AF6BB
:10029C00AA221A60704700BF0030004070B50D4CA8
:1002AC002668656872B600F003F900F091F84FF01B
:1002BC00E02300221A615A619A6103F550639C6035
:1002CC0086F30888BFF34F8FBFF36F8F62B6A847D2
:1002DC0070BD00BF0040000808B5827981880068B5
:1002EC0000F066FD08BD08B5C2798188006800F091
:1002FC005FFD08BD10B584B0044669460023009329
:10030C0001930293039383880093012301930223A7
:10031C000393006800F042FC2046FFF7E4FF04B0B2
:10032C0010BD10B590B006AC28220021204600F07C
:10033C00D5FD0023019302930393049305930123AA
:10034C0006934FF480330793204600F02BF910B13D
:10035C00012010B010BD0F23019301230293002143
:10036C0003910491059101A800F062FBF1E770473D
:10037C00FEE7FEE7FEE7FEE770477047704708B5FB
:10038C0000F06EF808BD000082B00E4B9A6942F086
:10039C0001029A619A6902F001020092009ADA69EC
:1003AC0042F08052DA61DB6903F080530193019BC8
:1003BC00054A536823F0E06343F00073536002B0C6
:1003CC00704700BF001002400000014070477047AA
:1003DC0010B5064B4FF0FF32DA6000241C61DA6076
:1003EC00DC60FFF7F4FF204610BD00BF0010024098
:1003FC0010B504460E4B1A784FF47A73B3FBF2F334
:10040C000C4A1068B0FBF3F000F02EFD68B90F2C0D
:10041C0001D901200AE0002221464FF0FF3000F004
:10042C0013FD054B1C60002000E0012010BD00BF37
:10043C0004000020000000200800002008B5074A36
:10044C00136843F010031360032000F0EBFC002052
:10045C00FFF7CEFFFFF798FF002008BD00200240F9
:10046C00034A1168034B1B780B441360704700BFA1
:10047C002C00002004000020014B1868704700BFBE
:10048C002C00002082B0084B1B68084AA2FB0323F7
:10049C005B0A00FB03F3019300BF019B5A1E019200
:1004AC00002BF9D102B0704700000020D34D621030
:1004BC0070B5FFF7E1FF0446364A136843F00103B9
:1004CC001360344B1B6813F0020F07D1FFF7D4FFF6
:1004DC00001B0228F5D90324204670BD2D4D2B6836
:1004EC0023F0F80343F080032B60FFF7C5FF0446AD
:1004FC0000236B60274B5B6813F00C0F08D0FFF7E1
:10050C00BBFF001B41F288339842F3D90324E3E785
:10051C00214B224A1A60224B1868FFF769FF0446E8
:10052C0008B10124D8E7FFF7A7FF0546194A13685D
:10053C0023F080731360174B1B6813F0007F06D0F9
:10054C00FFF79AFF401B0228F5D90324C4E7114E8C
:10055C0000237360FFF790FF0546336823F41023E4
:10056C0033600C4B1B6813F4003F06D0FFF784FF7D
:10057C00401B6428F5D90324AEE7064B1A6822F415
:10058C0080221A605A6A42F080725A6200229A6083
:10059C00A2E700BF001002400000002000127A0009
:1005AC0008000020002800F0F18170B582B00446EC
:1005BC00036813F0010F2CD0994B5B6803F00C030C
:1005CC00042B1DD0964B5B6803F00C03082B12D048
:1005DC006368B3F5803F41D0002B55D103F18043C4
:1005EC0003F504331A6822F480321A601A6822F474
:1005FC0080221A6037E08A4B5B6813F4803FE7D0A7
:10060C00874B1B6813F4003F03D06368002B00F08A
:10061C00BF81236813F0020F75D0814B5B6813F018
:10062C000C0F5FD07E4B5B6803F00C03082B54D08F
:10063C002369002B00F08A807A4B01221A60FFF7A5
:10064C001BFF0546764B1B6813F0020F75D1FFF7A5
:10065C0013FF401B0228F5D903209EE1704A136852
:10066C0043F480331360636843B3FFF705FF05461B
:10067C006B4B1B6813F4003FCBD1FFF7FDFE401B07
:10068C006428F5D9032088E1B3F5A02F09D0644B79
:10069C001A6822F480321A601A6822F480221A60D6
:1006AC00E1E703F18043A3F53C331A6842F480225E
:1006BC001A601A6842F480321A60D4E7FFF7DCFE45
:1006CC000546574B1B6813F4003FA2D0FFF7D4FE2E
:1006DC00401B6428F5D903205FE1514B5B6813F490
:1006EC00803FA5D14E4B1B6813F0020F03D023693A
:1006FC00012B40F04F814A4A136823F0F8036169DB
:10070C0043EAC1031360236813F0080F33D0A369C5
:10071C00002B5CD0434B0122C3F88024FFF7ACFEC6
:10072C0005463F4B5B6A13F0020F21D1FFF7A4FE85
:10073C00401B0228F5D903202FE1394A136823F016
:10074C00F803616943EAC1031360DCE7354B00220F
:10075C001A60FFF791FE0546314B1B6813F0020F30
:10076C00D1D0FFF789FE401B0228F5D9032014E1F4
:10077C000120FFF787FE236813F0040F00F096802A
:10078C00274BDB6913F0805F34D1254BDA6942F0DB
:10079C008052DA61DB6903F080530193019B0125E0
:1007AC00214B1B6813F4807F26D0E368012B3DD0CE
:1007BC00002B53D103F1804303F504331A6A22F062
:1007CC0001021A621A6A22F004021A6233E0154B13
:1007DC000022C3F88024FFF74FFE0546104B5B6ADE
:1007EC0013F0020FC7D0FFF747FE401B0228F5D9C4
:1007FC000320D2E00025D3E70B4A136843F480733F
:10080C001360FFF739FE0646074B1B6813F4807F15
:10081C00CBD1FFF731FE801B6428F5D90320BCE057
:10082C000010024000004242007000405F4A136A10
:10083C0043F001031362E36833B3FFF71DFE064672
:10084C005A4B1B6A13F0020F2FD1FFF715FE801BBA
:10085C0041F288339842F3D903209EE0052B09D04E
:10086C00524B1A6A22F001021A621A6A22F004022E
:10087C001A62E0E74D4B1A6A42F004021A621A6AD5
:10088C0042F001021A62D6E7FFF7F6FD0646474B27
:10089C001B6A13F0020F08D0FFF7EEFD801B41F22C
:1008AC0088339842F3D9032077E0E5B9E369002B4C
:1008BC0072D03E4A526802F00C02082A56D0022B23
:1008CC0017D03B4B00221A66FFF7D6FD0446374B78
:1008DC001B6813F0007F47D0FFF7CEFD001B0228EA
:1008EC00F5D9032059E0314AD36923F08053D36101
:1008FC00DCE72F4B00221A66FFF7BEFD05462B4B9B
:10090C001B6813F0007F06D0FFF7B6FD401B0228D2
:10091C00F5D9032041E0236AB3F5803F1AD023496F
:10092C004B6823F47413226A606A024313434B60CE
:10093C001F4B01221A66FFF79FFD04461B4B1B68D9
:10094C0013F0007F0ED1FFF797FD001B0228F5D99D
:10095C00032022E0154A536823F40033A1680B43AB
:10096C005360DCE7002018E0002016E0012B16D0C5
:10097C000E4B5B6803F48031226A914211D103F46F
:10098C007013626A93420ED1002006E0012070477A
:10099C00012002E0012000E0002002B070BD012027
:1009AC00FBE70120F9E70120F7E700BF0010024048
:1009BC000000424286B0194B0FCB0DF1180C0CE91C
:1009CC000F0040F20123ADF80430154B5B6803F0C7
:1009DC000C02042A1CD0082A1DD1C3F383421832FE
:1009EC006A4412F8100C13F4803F0DD00C4B5B686A
:1009FC00C3F3404318336B4413F8143C094A02FB0D
:100A0C0000F0B0FBF3F004E0074B03FB00F000E058
:100A1C00044806B070470548FBE700BFD410000837
:100A2C0000100240001BB70000093D0000127A00C4
:100A3C00002800F0A08070B50D460446524B1B6890
:100A4C0003F007038B420BD24F4A136823F00703C2
:100A5C000B431360136803F007038B4240F08D8047
:100A6C00236813F0020F17D013F0040F04D0474A79
:100A7C00536843F4E0635360236813F0080F04D009
:100A8C00424A536843F460535360404A536823F01E
:100A9C00F003A1680B435360236813F0010F31D0AE
:100AAC006368012B20D0022B25D0384A126812F033
:100ABC00020F64D035494A6822F0030213434B609D
:100ACC00FFF7DAFC0646314B5B6803F00C036268F7
:100ADC00B3EB820F16D0FFF7CFFC801B41F28833AB
:100AEC009842F0D9032045E0284A126812F4003FDE
:100AFC00E0D101203EE0254A126812F0007FD9D1E6
:100B0C00012037E0204B1B6803F00703AB420AD9E6
:100B1C001D4A136823F007032B431360136803F07B
:100B2C000703AB422DD1236813F0040F06D0174AEC
:100B3C00536823F4E063E1680B435360236813F0BC
:100B4C00080F07D0114A536823F46053216943EA14
:100B5C00C1035360FFF72EFF0C4B5B68C3F3031309
:100B6C000B4AD35CD8400B4B18600B4B1868FFF743
:100B7C003FFC002070BD012070470120FAE70120E6
:100B8C00F8E70120F6E700BF002002400010024009
:100B9C00C4100008000000200800002070B582B0CE
:100BAC000024A4469EE07C4DAB4214D00CD8A5F595
:100BBC008015AB420FD005F57025AB420BD0A5F5D7
:100BCC008015AB421FD106E0744DAB4203D005F546
:100BDC008035AB4217D18B68A3B1012B0DD042618C
:100BEC00082410E0CC680EE0CC6804340BE0CC6830
:100BFC00083408E0CC680C3405E00261082402E0FB
:100C0C00002400E00424BEF1FF0F37D806464FEA5B
:100C1C008C0233680F25954023EA050304FA02F28F
:100C2C00134333604B6813F0805F59D05C4B9A6967
:100C3C0042F001029A619B6903F001030193019B4D
:100C4C004FEA9C02951C574B53F825600CF003059A
:100C5C00AD000F23AB4026EA0306534B984214D049
:100C6C0003F58063984279D003F58063984277D07E
:100C7C0003F58063984206D0042307E0061DACF10F
:100C8C0008029200C5E7032300E00023AB40334386
:100C9C000232444D45F822304B6813F4803F61D04A
:100CAC00424A136843EA0E0313604B6813F4003F87
:100CBC005ED03E4A536843EA0E0353604B6813F40C
:100CCC00801F5BD0394A936843EA0E0393604B68EC
:100CDC0013F4001F58D0354AD36843EA0E03D3608F
:100CEC000CF1010C0B6833FA0CF253D0012202FA0E
:100CFC000CF203EA020E32EA0303F1D14B68122B19
:100D0C003FF651AF122B3FF67EAF01A555F823F0FD
:100D1C00E30B0008F10B0008FB0B00080D0C00089E
:100D2C00130C0008130C0008130C0008130C00081B
:100D3C00130C0008130C0008130C0008130C00080B
:100D4C00130C0008130C0008130C0008130C0008FB
:100D5C00130C0008F50B0008010C0008012395E7A3
:100D6C00022393E7114A136823EA0E0313609CE7EE
:100D7C000E4A536823EA0E0353609FE70B4A9368AD
:100D8C0023EA0E039360A2E7084AD36823EA0E0312
:100D9C00D360A5E702B070BD000022100000311036
:100DAC000010024000000140000801400004014016
:100DBC000AB101617047090401617047002808DB22
:100DCC000901C9B200F1604000F5614080F80013E0
:100DDC00704700F00F000901C9B2014B195470475C
:100DEC0014ED00E000B500F00700C0F1070CBCF1F9
:100DFC00040F28BF4FF0040C031D062B0FD9C31E84
:100E0C004FF0FF3E0EFA0CF021EA000199400EFA69
:100E1C0003FE22EA0E0241EA02005DF804FB002305
:100E2C00EEE70000074AD36823F4E0631B041B0CB5
:100E3C00000200F4E060034343F0BF6343F400336B
:100E4C00D360704700ED00E010B50446054BD86840
:100E5C00C0F30220FFF7C6FF01462046FFF7AEFFA6
:100E6C0010BD00BF00ED00E00138B0F1807F0BD267
:100E7C004FF0E0235861054AF02182F8231000203E
:100E8C00986107221A6170470120704700ED00E05D
:100E9C000C480D490D4A002302E0D458C4500433C9
:100EAC00C4188C42F9D30A4A0A4C002301E013609F
:100EBC000432A242FBD3FFF789FA00F05DF8FFF78A
:100ECC0091F970470000002010000020F410000879
:100EDC0010000020C8010020FEE70000830730B599
:100EEC0046D08446841805E0634603F8011B9D0731
:100EFC0003D09C46A445F7D130BD013A0244A2EB85
:100F0C000C02032A29D9CCB204EB04240F2A04EBDB
:100F1C0004442FD9A2F1100C2CF00F0C03F1100586
:100F2C00AC44C3E90044C3E9024410336345F8D12F
:100F3C0012F00C0F02F00F0E18D01A462EF0030C04
:100F4C009C44AEF1040542F8044B6245FBD125F0FC
:100F5C00030404330EF003022344002ACCD0C9B29C
:100F6C001A4403F8011B9342FBD130BD7246F4E7DF
:100F7C000346C6E79646E0E770B50F4B0F4DAB4204
:100F8C00A3EB050607D00024B61055F8043B01343A
:100F9C009847A642F9D800F07FF8094D094B5E1B23
:100FAC00AB424FEAA60606D0002455F8043B0134A8
:100FBC009847A642F9D870BDE8100008E810000860
:100FCC00E8100008F0100008704700BF704700BF21
:100FDC00024B13B1024800F005B870470000000046
:100FEC00FD0F0008002301461A46184600F014B8FD
:100FFC0038B5074D074C2C1BA41005D0013C55F8F7
:10100C00043D9847002CF9D1BDE8384000F04AB8AF
:10101C00F4100008F01000082DE9F8431B4D0646AB
:10102C00286898460F469146FFF7CEFF184B1C6870
:10103C001CB3286865681F2D22DC4EB96B1C023569
:10104C00636044F82570FFF7C1FF0020BDE8F8830A
:10105C00012304EB8501C1F88890D4F88821AB40BA
:10106C001A43022EC4F88821C1F80881E6D1D4F8BD
:10107C008C211A43C4F88C21E0E7064C1C60D8E79D
:10108C00FFF7A4FF4FF0FF30E0E700BF0C0000209B
:10109C003400002038000020F8B500BFF8BC08BCB4
:1010AC009E467047F8B500BFF8BC08BC9E4670471A
:1010BC0000100140002000010000000000000000B2
:1010CC0001020304060708090203040506070809C0
:0C10DC000A0B0C0D0E0F1010000000009D
:0810E800DD0F0008750100088E
:0410F0004D010008A6
:1010F40000127A00010000001000000030000020FF
:0400000508000E9D44
:00000001FF
