:020000040800F2
:1040000000500020A15F0008354C0008374C000824
:10401000394C00083B4C00083D4C000800000000F3
:104020000000000000000000000000003F4C0008FD
:10403000414C000800000000434C0008454C0008BB
:10404000E95F0008E95F0008E95F0008E95F000830
:10405000E95F0008E95F0008E95F0008E95F000820
:10406000E95F0008E95F0008E95F0008E95F000810
:10407000E95F0008E95F0008E95F0008E95F000800
:10408000E95F0008E95F0008E95F0008E95F0008F0
:10409000E95F0008E95F0008E95F0008E95F0008E0
:1040A000E95F0008E95F0008E95F0008E95F0008D0
:1040B000E95F0008E95F0008E95F0008E95F0008C0
:1040C000E95F0008E95F0008E95F0008E95F0008B0
:1040D000E95F0008E95F0008E95F0008E95F0008A0
:1040E000E95F0008E95F0008E95F000800000000E0
:1040F00000000000000000000000000000000000C0
:0C41000000000000000000005FF808F163
:104110000348044B834202D0034B03B11847704756
:104120001000002010000020000000000548064B91
:104130001B1AD90F01EBA301491002D0034B03B1A5
:1041400018477047100000201000002000000000F9
:1041500010B5064C237843B9FFF7DAFF044B13B1CF
:104160000448AFF300800123237010BD100000202D
:1041700000000000A861000808B5054B1BB1054907
:104180000548AFF30080BDE80840FFF7CFBF00BF90
:104190000000000014000020A8610008124A536AC1
:1041A00043F001035362104B5B6A13F0020FFAD025
:1041B0000E4B45F255521A600C4BDB6813F0010FA1
:1041C000FAD10A4B04225A60084BDB6813F0020F45
:1041D000FAD1064B40F2E1429A604AF6AA221A60EE
:1041E0004CF6CC421A60704700100240003000408C
:1041F000024B4AF6AA221A60704700BF0030004006
:104200002DE9F04788B004AD002404940594069489
:104210000794384B9A6942F010029A619A6902F049
:1042200010020092009A9A6942F020029A619A69FB
:1042300002F020020192019A9A6942F004029A6106
:104240009A6902F004020292029A9A6942F0080204
:104250009A619B6903F008030393039BDFF898A01E
:1042600001224FF40051504601F093FB234F2246A8
:104270004FF48041384601F08CFB22464FF4004158
:10428000384601F086FB1E4E22464FF480713046C0
:1042900001F07FFB4FF4005304934FF00109CDF878
:1042A000149006944FF00208CDF81C802946504621
:1042B00001F0E0F94FF440430493CDF814900694D4
:1042C000CDF81C802946384601F0D4F94FF48073AC
:1042D00004932946304601F0CDF94FF4006304936E
:1042E000059406942946304601F0C4F908B0BDE8AB
:1042F000F08700BF0010024000100140000C014098
:104300000008014072B6FEE708B50A480A4B036090
:104310004FF4E133436000238360C36003610C22E8
:1043200042618361C36101F087FD00B908BDFFF7F9
:10433000E9FF00BFB40000200038014008B50A487A
:104340000A4B03604FF4E133436000238360C36092
:1043500003610C2242618361C36101F06DFD00B90C
:1043600008BDFFF7CFFF00BF7000002000440040F1
:1043700008B50A480A4B03604FF4E1334360002359
:104380008360C36003610C2242618361C36101F0F9
:1043900053FD00B908BDFFF7B5FF00BF2C0000209A
:1043A0000048004008B500F011FC00B908BDFFF757
:1043B000A9FF000000B58FB000F074FDFFF718FFF3
:1043C000FFF7F0FFFFF714FFFFF71AFFFFF710FFEB
:1043D000FFF79AFFFFF70CFFFFF7B0FFFFF708FFAB
:1043E000FFF7C6FFFFF704FF184B0193184B02932A
:1043F000184B0393184B04934FF40053ADF814304B
:10440000164B06934FF48042ADF81C2008934FF4EE
:104410000043ADF8243003F1804303F508430A93C9
:104420004FF48072ADF82C200C934FF40063ADF87C
:10443000343001A800F04AFBFFF7B0FEFFF7D8FECA
:1044400000F078FBFFF7D4FEFAE700BFB4000020CD
:10445000700000202C00002000100140000C0140E2
:10446000044BD3F8000C044B984214BF00200120E9
:10447000704700BF00F00108534643520870002304
:104480004B7001238B702823CB7018230B710423EE
:104490004B7170470C4BB3F8441305290FD9002317
:1044A0008A1F92B29A4208D3074A1A4492F84420CB
:1044B000C02A06D001339BB2F2E7002070470020EB
:1044C00070470120704700BF140100208C46B9B12D
:1044D000831D9BB20D4AB2F84423934212D80023A5
:1044E000052B0BD8C118094A0A4492F844101CF84D
:1044F0000320914208D10133DBB2F1E7012070477C
:1045000000207047002070470020704714010020F1
:10451000114BB3F84433052B02D8002318467047DB
:1045200010B582B06946C020FFF7A8FF00240A4BEF
:10453000B3F84433063B9BB2A34208D369462046F6
:10454000FFF7C4FF034618B90134A4B2EFE7002314
:10455000184602B010BD00BF14010020024B4AF6FD
:10456000AA221A60704700BF00300040034628B3FB
:1045700031B30268106810F0200F23D052680A701F
:104580001B68114A934207D0104A93420AD0104A3E
:1045900093420DD0012070470E4A13680133136017
:1045A000012070470C4A13680133136001207047E3
:1045B0000A4A1368013313600120704700207047D6
:1045C0000020704700207047003801400044004040
:1045D00000480040100100200801002000010020D8
:1045E00000B583B00DF10701044B1868FFF7BEFF5B
:1045F0000028F7D103B05DF804FB00BF14010020D0
:1046000070B504460E4600F06BFC05464CB12368BD
:104610001A6812F0800F05D100F062FC431B092BD1
:10462000F5D970BD5E6023680B4A93420AD00B4AED
:1046300093420CD00A4A9342F3D10A4A13680133D9
:104640001360EEE7084A136801331360E9E7074A8D
:10465000136801331360E4E7003801400044004070
:1046600000480040FC0000200C0100200401002054
:1046700078B1F8B50D461646074649B1002405E065
:10468000295D3846FFF7BCFF0134A4B2B442F7D32A
:10469000F8BD704708B50A460146024B1868FFF797
:1046A000E7FF08BD1401002028B170B582B00D46A7
:1046B0000646002412E070470D228DF80620AB421A
:1046C0001FD000228DF80720114A5068AB421AD043
:1046D000032201A9FFF7CCFF0134A4B2AC4214D2EB
:1046E000335D1B090B4AD35C8DF80430335D03F056
:1046F0000F03D35C8DF80530631CAB42DCD0202265
:10470000DBE70A22DEE70422E3E702B070BD00BF68
:10471000140100202862000898B130B583B00C461F
:10472000054629B90BE09DF807102046FFF768FF02
:104730000DF107012846FFF719FF0028F3D103B058
:1047400030BD704770B582B006460C4600F0C8FB1D
:104750000546174B0022A3F8442300F0C1FB401B81
:10476000B04222D2FFF7FAFE00E0BCB90DF107011A
:104770000F4B1868FFF7FAFE0028EED00C4BB3F889
:104780004433B3F5407FF0D2094AD1189DF80700B1
:1047900081F844000133A2F84433E6E79DF807109E
:1047A000034B5868FFF72CFFE0E702B070BD00BF75
:1047B0001401002030B583B004466946C020FFF7DD
:1047C0005DFE06216846FFF765FF00214FF4167075
:1047D000FFF7B8FFFFF79CFE054610B9284603B067
:1047E00030BD002CFAD00348B0F844134430FFF732
:1047F0005BFFF3E71401002030B583B00446104B93
:104800001B68ADF804301B0C8DF80630032101A89D
:10481000FFF740FF002140F69800FFF793FFFFF7F6
:1048200039FE054610B9284603B030BD002CFAD039
:104830000448B0F844134430FFF736FFF3E700BFF5
:10484000C06100081401002010B500F049FB0446C7
:1048500000F046FB001BB0F57A7F0AD2FFF77EFE20
:10486000044BD86A0028F3D0198E01F08BF8012888
:10487000EED110BD1401002010B5094C0022218B8F
:10488000606901F086F80022218CE06901F081F86E
:104890000122218D606A01F07CF8FFF7D5FF10BD81
:1048A0001401002010B5094C0122218B606901F030
:1048B00070F80122218CE06901F06BF80122218D52
:1048C000606A01F066F8FFF7BFFF10BD1401002019
:1048D00000B587B000230193FFF7C2FD10B107B008
:1048E0005DF804FB01F00CF9002302930C4B0493D8
:1048F0000123059301A902A801F0CEF910B101F03E
:1049000019F9ECE704A3D3E900230549022001F0DB
:104910004FF9F4E7AFF30080534643520000000024
:1049200000FC010890B138B50C46054643688B423F
:104930000ED001F0B0FA08B100200AE06C60284601
:1049400001F07AFAB0FA80F0400902E000207047E6
:10495000012038BD38B505460C46FFF7A3FF2946B0
:10496000074B1868FFF7DEFFFFF73AFE00214FF410
:104970009660FFF7E7FE2046FFF73EFF38BD00BF19
:104980001401002090B170B50D46064600240CB10C
:10499000002070BD29464FF41650FFF7DBFF08B921
:1049A0000134F4E74FF416533360F2E70020704708
:1049B00000B583B04FF4165301931F4B1B6813B11E
:1049C000FFF74EFD10B103B05DF804FB1B4A1368FE
:1049D00001331360012140F6B830FFF7B3FE012127
:1049E00001A8FFF7CFFF60B10120FFF705FF88B9ED
:1049F0004FF4E131104B1868FFF794FFFFF73CFFCD
:104A0000E1E74FF4E1310C4B1868FFF78BFFFFF73C
:104A100033FFD8E70120FFF7CDFE0028E8D00120C2
:104A2000FFF7EAFE0028E3D0FFF772FD0028DFD091
:104A3000FFF74EFFDCE700BF14010020F800002064
:104A400030B595B00EAC1D4D0FCD0FC495E80300E9
:104A500044F8040B21700DF1180C194C0FCCACE884
:104A60000F0094E80F00ACE807002CF8023B1B0C89
:104A70008CF800306C46134D0FCD0FC495E8030041
:104A800044F8040B2180104B186820B10A2314222B
:104A90000EA901F019FA0C4B586820B10A231E2206
:104AA00006A901F011FA084B986820B10A231522D3
:104AB000694601F009FA15B030BD00BFC4610008B5
:104AC000DC610008FC6100081401002070B582B0B0
:104AD0000446174D4FF452720021284601F086FA21
:104AE000AE46A446BCE80F00AEE80F00BCE80F00DD
:104AF000AEE80F00BCE80F00AEE80F00DCF80030B5
:104B0000CEF80030EC682E8A00F0EAF9019001231B
:104B1000009300233246214605F1340000F036F8B8
:104B2000FFF7AAFEFFF744FFFFF78AFF02B070BD50
:104B30001401002070B500F0D3F90646094C216835
:104B40006068FFF7E9FD2546616855F8340BFFF70B
:104B5000E3FD33464FF4FA720121284600F024F8B1
:104B600070BD00BF1401002008B5012303738279D2
:104B70008188006800F00DFF08BD08B500230373AD
:104B8000C2798188006800F004FF08BD08B50160A3
:104B9000828083719DF80830C371039B836000237A
:104BA0000373FFF7EAFF08BD08B549B18168591AD8
:104BB000914204D38360037B2BB1FFF7DEFF08BD76
:104BC000FFF7DBFFFBE7FFF7CFFFF8E710B594B087
:104BD0000AAC28220021204601F008FA00230593A0
:104BE0000693079308930993019302930393049305
:104BF00001230A934FF480330B93204600F08CF985
:104C000010B1012014B010BD0F23059301230693AA
:104C1000002107910891099105A800F0C3FB08B194
:104C20000120EFE7022301930023039301A800F082
:104C300095FCE7E77047FEE7FEE7FEE7FEE7704713
:104C40007047704708B500F03FF908BD82B00E4BC1
:104C50009A6942F001029A619A6902F00102009297
:104C6000009ADA6942F08052DA61DB6903F080531E
:104C70000193019B054A536823F0E06343F00073FE
:104C8000536002B0704700BF0010024000000140B6
:104C900030B58BB0002306930793089309930368FC
:104CA000464A934207D0464A934230D0454A9342FF
:104CB00057D00BB030BD444B9A6942F480429A61A0
:104CC0009A6902F480420092009A9A6942F00402C2
:104CD0009A619B6903F004030193019B4FF40073F5
:104CE0000693022307930323099306AD374C294605
:104CF000204600F0BFFC4FF4806306930023079327
:104D0000012308932946204600F0B4FCD1E72E4B3E
:104D1000DA6942F40032DA61DA6902F400320292AE
:104D2000029A9A6942F004029A619B6903F00403B3
:104D30000393039B042306930223079303230993FE
:104D400006AD224C2946204600F094FC0823069329
:104D500000230793012308932946204600F08AFC8C
:104D6000A7E7194BDA6942F48022DA61DA6902F4C2
:104D700080220492049A9A6942F008029A619B691F
:104D800003F008030593059B4FF480630693022309
:104D900007930323099306AD0D4C2946204600F0E6
:104DA00069FC4FF4006306930023079301230893E3
:104DB0002946204600F05EFC7BE700BF003801403A
:104DC000004400400048004000100240000801403C
:104DD000000C014008B50368164A934206D0164AF3
:104DE00093420FD0154A934217D008BD02F558429E
:104DF000936923F4804393614FF4C061104800F03D
:104E000043FDF2E702F5E632D36923F40033D361C0
:104E10000C210B4800F038FDE7E702F5E432D369D6
:104E200023F48023D3614FF44061064800F02CFD49
:104E3000DBE700BF0038014000440040004800406C
:104E400000080140000C0140014B024A9A60704783
:104E500000ED00E00040000810B504460E4B1A7843
:104E60004FF47A73B3FBF2F30C4A1068B0FBF3F023
:104E700000F0ECFD68B90F2C01D901200AE00022F6
:104E800021464FF0FF3000F0D1FD054B1C600020A3
:104E900000E0012010BD00BF040000200000002041
:104EA0000800002008B5074A136843F01003136098
:104EB000032000F0A9FD0020FFF7CEFFFFF7C6FE9C
:104EC000002008BD00200240034A1168034B1B78F4
:104ED0000B441360704700BF5C04002004000020F6
:104EE000014B1868704700BF5C04002082B0084B7B
:104EF0001B68084AA2FB03235B0A00FB03F3019330
:104F000000BF019B5A1E0192002BF9D102B07047DD
:104F100000000020D34D6210002800F0F18170B530
:104F200082B00446036813F0010F2CD0994B5B68E4
:104F300003F00C03042B1DD0964B5B6803F00C03AD
:104F4000082B12D06368B3F5803F41D0002B55D1B8
:104F500003F1804303F504331A6822F480321A60A7
:104F60001A6822F480221A6037E08A4B5B6813F4D7
:104F7000803FE7D0874B1B6813F4003F03D0636882
:104F8000002B00F0BF81236813F0020F75D0814B16
:104F90005B6813F00C0F5FD07E4B5B6803F00C0373
:104FA000082B54D02369002B00F08A807A4B012211
:104FB0001A60FFF795FF0546764B1B6813F0020F4A
:104FC00075D1FFF78DFF401B0228F5D903209EE124
:104FD000704A136843F480331360636843B3FFF788
:104FE0007FFF05466B4B1B6813F4003FCBD1FFF7E7
:104FF00077FF401B6428F5D9032088E1B3F5A02F83
:1050000009D0644B1A6822F480321A601A6822F4BC
:1050100080221A60E1E703F18043A3F53C331A686C
:1050200042F480221A601A6842F480321A60D4E78F
:10503000FFF756FF0546574B1B6813F4003FA2D0FD
:10504000FFF74EFF401B6428F5D903205FE1514B69
:105050005B6813F4803FA5D14E4B1B6813F0020F21
:1050600003D02369012B40F04F814A4A136823F093
:10507000F803616943EAC1031360236813F0080F62
:1050800033D0A369002B5CD0434B0122C3F88024AA
:10509000FFF726FF05463F4B5B6A13F0020F21D155
:1050A000FFF71EFF401B0228F5D903202FE1394AE4
:1050B000136823F0F803616943EAC1031360DCE776
:1050C000354B00221A60FFF70BFF0546314B1B687A
:1050D00013F0020FD1D0FFF703FF401B0228F5D9D0
:1050E000032014E10120FFF701FF236813F0040FF0
:1050F00000F09680274BDB6913F0805F34D1254B9D
:10510000DA6942F08052DA61DB6903F0805301937F
:10511000019B0125214B1B6813F4807F26D0E36897
:10512000012B3DD0002B53D103F1804303F5043311
:105130001A6A22F001021A621A6A22F004021A6242
:1051400033E0154B0022C3F88024FFF7C9FE054663
:10515000104B5B6A13F0020FC7D0FFF7C1FE401B74
:105160000228F5D90320D2E00025D3E70B4A1368C3
:1051700043F480731360FFF7B3FE0646074B1B68CA
:1051800013F4807FCBD1FFF7ABFE801B6428F5D9E9
:105190000320BCE0001002400000424200700040CA
:1051A0005F4A136A43F001031362E36833B3FFF706
:1051B00097FE06465A4B1B6A13F0020F2FD1FFF7DA
:1051C0008FFE801B41F288339842F3D903209EE082
:1051D000052B09D0524B1A6A22F001021A621A6A90
:1051E00022F004021A62E0E74D4B1A6A42F0040210
:1051F0001A621A6A42F001021A62D6E7FFF770FEDD
:105200000646474B1B6A13F0020F08D0FFF768FEF3
:10521000801B41F288339842F3D9032077E0E5B947
:10522000E369002B72D03E4A526802F00C02082A51
:1052300056D0022B17D03B4B00221A66FFF750FEC8
:105240000446374B1B6813F0007F47D0FFF748FE3A
:10525000001B0228F5D9032059E0314AD36923F015
:105260008053D361DCE72F4B00221A66FFF738FE2C
:1052700005462B4B1B6813F0007F06D0FFF730FE6E
:10528000401B0228F5D9032041E0236AB3F5803F93
:105290001AD023494B6823F47413226A606A0243CC
:1052A00013434B601F4B01221A66FFF719FE044699
:1052B0001B4B1B6813F0007F0ED1FFF711FE001B84
:1052C0000228F5D9032022E0154A536823F400335D
:1052D000A1680B435360DCE7002018E0002016E0D3
:1052E000012B16D00E4B5B6803F48031226A914289
:1052F00011D103F47013626A93420ED1002006E0CC
:1053000001207047012002E0012000E0002002B0EF
:1053100070BD0120FBE70120F9E70120F7E700BF9E
:10532000001002400000424286B0194B0FCB0DF135
:10533000180C0CE90F0040F20123ADF80430154BB6
:105340005B6803F00C02042A1CD0082A1DD1C3F3A9
:10535000834218326A4412F8100C13F4803F0DD0C7
:105360000C4B5B68C3F3404318336B4413F8143C95
:10537000094A02FB00F0B0FBF3F004E0074B03FB2B
:1053800000F000E0044806B070470548FBE700BFA6
:105390001462000800100240001BB70000093D0025
:1053A00000127A00002800F0A08070B50D46044677
:1053B000524B1B6803F007038B420BD24F4A136812
:1053C00023F007030B431360136803F007038B42BA
:1053D00040F08D80236813F0020F17D013F0040FF4
:1053E00004D0474A536843F4E0635360236813F0E2
:1053F000080F04D0424A536843F460535360404A54
:10540000536823F0F003A1680B435360236813F043
:10541000010F31D06368012B20D0022B25D0384AF0
:10542000126812F0020F64D035494A6822F0030274
:1054300013434B60FFF754FD0646314B5B6803F0A6
:105440000C036268B3EB820F16D0FFF749FD801B97
:1054500041F288339842F0D9032045E0284A126887
:1054600012F4003FE0D101203EE0254A126812F01C
:10547000007FD9D1012037E0204B1B6803F00703E0
:10548000AB420AD91D4A136823F007032B4313606C
:10549000136803F00703AB422DD1236813F0040F08
:1054A00006D0174A536823F4E063E1680B43536066
:1054B000236813F0080F07D0114A536823F4605390
:1054C000216943EAC1035360FFF72EFF0C4B5B6871
:1054D000C3F303130B4AD35CD8400B4B18600B4B40
:1054E0001868FFF7B9FC002070BD0120704701204B
:1054F000FAE70120F8E70120F6E700BF00200240AC
:105500000010024044620008000000200800002053
:10551000014B1868704700BF0000002008B5FFF776
:10552000F7FF044B5B68C3F30223034AD35CD84004
:1055300008BD00BF001002403C62000808B5FFF73C
:10554000E7FF044B5B68C3F3C223034AD35CD84034
:1055500008BD00BF001002403C62000870B582B078
:105560000446036813F0010F36D03F4BDB6913F09C
:10557000805F4AD13C4BDA6942F08052DA61DB69E4
:1055800003F080530193019B0125384B1B6813F4F2
:10559000807F3CD0344B1B6A13F4407313D0626895
:1055A00002F440729A420ED02F4A136A23F44070DC
:1055B0002F490126C1F840640026C1F840641062FA
:1055C00013F0010F37D1284A136A23F4407361683E
:1055D0000B431362002D3FD1236813F0020F06D056
:1055E000214A536823F44043A1680B435360236866
:1055F00013F0100F35D01C4A536823F48003E16880
:105600000B435360002002B070BD0025BDE7174A70
:10561000136843F480731360FFF762FC0646134B74
:105620001B6813F4807FB5D1FFF75AFC801B6428F8
:10563000F5D90320E7E7FFF753FC06460A4B1B6A40
:1056400013F0020FBFD1FFF74BFC801B41F28833F0
:105650009842F3D90320D6E7D36923F08053D3616E
:10566000BAE70020CFE700BF001002400070004002
:105670000000424270B582B00024A4469EE07C4DFA
:10568000AB4214D00CD8A5F58015AB420FD005F570
:105690007025AB420BD0A5F58015AB421FD106E0BB
:1056A000744DAB4203D005F58035AB4217D18B6802
:1056B000A3B1012B0DD04261082410E0CC680EE0AC
:1056C000CC6804340BE0CC68083408E0CC680C34B7
:1056D00005E00261082402E0002400E00424BEF199
:1056E000FF0F37D806464FEA8C0233680F259540E6
:1056F00023EA050304FA02F2134333604B6813F004
:10570000805F59D05C4B9A6942F001029A619B69B3
:1057100003F001030193019B4FEA9C02951C574B38
:1057200053F825600CF00305AD000F23AB4026EACB
:105730000306534B984214D003F58063984279D006
:1057400003F58063984277D003F58063984206D0D2
:10575000042307E0061DACF108029200C5E703230D
:1057600000E00023AB4033430232444D45F8223081
:105770004B6813F4803F61D0424A136843EA0E033A
:1057800013604B6813F4003F5ED03E4A536843EA0F
:105790000E0353604B6813F4801F5BD0394A936843
:1057A00043EA0E0393604B6813F4001F58D0354A48
:1057B000D36843EA0E03D3600CF1010C0B6833FA93
:1057C0000CF253D0012202FA0CF203EA020E32EA82
:1057D0000303F1D14B68122B3FF651AF122B3FF66A
:1057E0007EAF01A555F823F0AF560008BD5600085E
:1057F000C7560008D9560008DF560008DF560008D3
:10580000DF560008DF560008DF560008DF560008A4
:10581000DF560008DF560008DF560008DF56000894
:10582000DF560008DF560008DF560008C1560008A2
:10583000CD560008012395E7022393E7114A136828
:1058400023EA0E0313609CE70E4A536823EA0E0313
:1058500053609FE70B4A936823EA0E039360A2E725
:10586000084AD36823EA0E03D360A5E702B070BDEF
:105870000000221000003110001002400000014022
:10588000000801400004014000226BE0032500E015
:10589000002505FA04F4644542D0FF2B5AD8864609
:1058A0009500DEF800404FF00F0C0CFA05FC24EADE
:1058B0000C044FF0040C0CFA05FC44EA0C04CEF87E
:1058C0000040C46824EA0303C360013231FA02F3E2
:1058D00046D0012393400B40F7D09608B51C264CC8
:1058E00054F8255002F00304A4004FF00F0C0CFAFA
:1058F00004FE0EEA050C214DA842C9D005F58065CD
:10590000A84209D005F58065A84207D005F5806555
:10591000A842BBD00425BCE70125BAE70225B8E7B9
:10592000154FB41C57F8245025EA0E0547F82450AB
:10593000134C256825EA03052560656825EA0305FB
:105940006560A56825EA0305A560E56825EA030505
:10595000E560A2E700F1040EA2F10805AD00A0E7A2
:10596000F0BD013231FA02F305D0012393400B4020
:10597000F7D0F0B5B1E770470000014000080140E2
:10598000000401408368194201D0012070470020C3
:1059900070470AB101617047090401617047000056
:1059A000002808DB0901C9B200F1604000F5614040
:1059B00080F80013704700F00F000901C9B2014BD5
:1059C0001954704714ED00E000B500F00700C0F175
:1059D000070CBCF1040F28BF4FF0040C031D062B6D
:1059E0000FD9C31E4FF0FF3E0EFA0CF021EA000162
:1059F00099400EFA03FE22EA0E0241EA02005DF827
:105A000004FB0023EEE70000074AD36823F4E063B9
:105A10001B041B0C000200F4E060034343F0BF636F
:105A200043F40033D360704700ED00E010B5044646
:105A3000054BD868C0F30220FFF7C6FF0146204699
:105A4000FFF7AEFF10BD00BF00ED00E00138B0F180
:105A5000807F0BD24FF0E0235861054AF02182F895
:105A600023100020986107221A61704701207047B7
:105A700000ED00E0044B0022DA61044A136943F0B0
:105A80000103136101807047600400200020024080
:105A9000194BDB6813F0100305D0184AD36943F0A3
:105AA0000203D3611023144AD26812F0040F06D007
:105AB0001249CA6942F00102CA6143F004030E4A66
:105AC000D26912F0010F09D00C49CA6942F00402F0
:105AD000CA610949CA6922F00102CA6140F2011291
:105AE000934202D0044AD3607047034AD36923F03B
:105AF0000103D361704700BF002002406004002012
:105B00000A4B1B6913F0800F0BD0084B084A5A60F0
:105B100002F188325A601B6913F0800F03D1002014
:105B20007047002070470120704700BF00200240EE
:105B300023016745034A136943F080031361002082
:105B4000704700BF0020024038B50446FFF7C8F98F
:105B50000546164BDB6813F0010F0AD0B4F1FF3F86
:105B6000F7D024B1FFF7BCF9401BA042F1D90320C4
:105B70001BE00E4BDB6813F0200F02D00B4B2022F2
:105B8000DA600A4BDB6813F0100F0BD1074BDB69AF
:105B900013F0010F06D1054BDB6813F0040F01D1A0
:105BA000002002E0FFF774FF012038BD0020024012
:105BB0002DE9F8431E46244B1B7E012B41D00446A1
:105BC0000F469046204B01221A764CF25030FFF7D8
:105BD000BBFF034678BB012C08D0022C03D04FF04A
:105BE00004091C4607E04FF00209FAE74FF00109EB
:105BF000F7E70134E4B24C451DD22101C1F1200286
:105C0000A1F1200328FA01F106FA02F2114326FA63
:105C100003F3194389B207EB4400FFF72BFF4CF263
:105C20005030FFF791FF094B1D6925F001051D61FB
:105C300003460028DDD0044A002111761846BDE84D
:105C4000F8830223FAE700BF60040020002002402E
:105C5000064B0022DA61064B1A6942F004021A610F
:105C60001A6942F040021A61704700BF60040020C8
:105C700000200240064B0022DA61064B1A6942F00E
:105C800002021A6158611A6942F040021A617047B3
:105C90006004002000200240264B1B7E012B46D0D2
:105CA00070B505460E46234B01221A760368022B77
:105CB00020D04CF25030FFF747FF90BB4FF0FF333E
:105CC0003360AC680121EA68AB6803EB8223A3422E
:105CD00028D92046FFF7CEFF4CF25030FFF734FFB3
:105CE000154A136923F0020313610146B8B904F59C
:105CF0008064E8E74CF25030FFF726FF08B101213D
:105D000010E00120FFF7A4FF4CF25030FFF71CFF1A
:105D10000146094A136923F00403136102E0346069
:105D200000E00121034B00221A76084670BD0221D3
:105D300008467047600400200020024010B5044669
:105D40000268136923F44053C1680B4313618368ED
:105D50000269134342691A430168CB6823F4B053C4
:105D600023F00C031343CB600268536923F44073A0
:105D700081690B4353610268134B9A4220D0FFF7AD
:105D8000CDFB024602EB820202EB820263689B00BB
:105D9000B2FBF3F20D48A0FB02314909642303FB77
:105DA00011231B013233A0FB03035B0903F0F00254
:105DB00002EB011203F00F03216813448B6010BD46
:105DC000FFF7BCFB0246DDE7003801401F85EB51C1
:105DD0002DE9F84305460F4616469946DDF8208022
:105DE0002B681C6837EA04040CBF01240024B44269
:105DF0001FD1B8F1FF3FF3D0B8F1000F05D0FFF786
:105E00006FF8A0EB09004045EAD92A68D36823F46B
:105E1000D073D3602A68536923F0010353612023B0
:105E200085F83D3085F83E30002385F83C3003206E
:105E300000E00020BDE8F88358B310B5044690F8A0
:105E40003D300BB3242384F83D302268D36823F41B
:105E50000053D3602046FFF771FF2268136923F4D3
:105E6000904313612268536923F02A035361226827
:105E7000D36843F40053D36000202064202384F8C7
:105E80003D3084F83E3010BD80F83C30FEF700FF16
:105E9000D8E701207047A8B110B50446242380F844
:105EA0003D300268D36823F40053D360FEF792FFBD
:105EB0000020206484F83D0084F83E00206384F8CC
:105EC0003C0010BD012070472DE9F04182B01E4614
:105ED00090F83D30202B54D104460D4690460029C1
:105EE00053D0002A53D090F83C30012B51D00123DD
:105EF00080F83C3000230364212380F83D30FEF716
:105F0000EFFF0746A4F82480A4F82680A368B3F521
:105F1000805F05D04FF00008002384F83C3012E089
:105F2000236913B14FF00008F6E7A8460025F3E710
:105F300038F8023B2268C3F308035360E28C92B244
:105F4000013A92B2E284E38C9BB273B100963B4675
:105F5000002280212046FFF73BFFE0B9002DE7D06B
:105F600015F8012B23685A60E8E700963B460022AB
:105F700040212046FFF72CFF78B9202384F83D30DC
:105F800000E0022002B0BDE8F0810120FAE7012024
:105F9000F8E70220F6E70320F4E70320F2E7000029
:105FA0000C480D490D4A002302E0D458C450043374
:105FB000C4188C42F9D30A4A0A4C002301E013604A
:105FC0000432A242FBD3FEF73FFF00F05DF8FEF77C
:105FD000F1F9704700000020100000206062000806
:105FE0001000002018060020FEE70000830730B5EF
:105FF00046D08446841805E0634603F8011B9D07DC
:1060000003D09C46A445F7D130BD013A0244A2EB2F
:106010000C02032A29D9CCB204EB04240F2A04EB86
:1060200004442FD9A2F1100C2CF00F0C03F1100531
:10603000AC44C3E90044C3E9024410336345F8D1DA
:1060400012F00C0F02F00F0E18D01A462EF0030CAF
:106050009C44AEF1040542F8044B6245FBD125F0A7
:10606000030404330EF003022344002ACCD0C9B247
:106070001A4403F8011B9342FBD130BD7246F4E78A
:106080000346C6E79646E0E770B50F4B0F4DAB42AF
:10609000A3EB050607D00024B61055F8043B0134E5
:1060A0009847A642F9D800F07FF8094D094B5E1BCE
:1060B000AB424FEAA60606D0002455F8043B013453
:1060C0009847A642F9D870BD54620008546200088F
:1060D000546200085C620008704700BF704700BF50
:1060E000024B13B1024800F005B8704700000000F1
:1060F00001610008002301461A46184600F014B852
:1061000038B5074D074C2C1BA41005D0013C55F8A1
:10611000043D9847002CF9D1BDE8384000F04AB85A
:10612000606200085C6200082DE9F8431B4D0646DA
:10613000286898460F469146FFF7CEFF184B1C681B
:106140001CB3286865681F2D22DC4EB96B1C023514
:10615000636044F82570FFF7C1FF0020BDE8F883B5
:10616000012304EB8501C1F88890D4F88821AB4065
:106170001A43022EC4F88821C1F80881E6D1D4F868
:106180008C211A43C4F88C21E0E7064C1C60D8E748
:10619000FFF7A4FF4FF0FF30E0E700BF0C00002046
:1061A0008404002088040020F8B500BFF8BC08BCB7
:1061B0009E467047F8B500BFF8BC08BC9E467047C5
:1061C000C1C1C10055534152543120524144494F3D
:1061D0002052454144590D0A0000000055534152D8
:1061E000543220484F535420524541445920524F75
:1061F0004C453D534C4156450D0A00005553415204
:10620000543320554E555345442052454144590D71
:106210000A00000002030405060708090A0B0C0D1A
:106220000E0F101000000000303132333435363795
:106230003839414243444546000000000000000058
:10624000010203040000000000000000010203043A
:04625000060708092C
:08625400E16000087941000837
:04625C0051410008A4
:1062600000127A00010000001000000080040020ED
:020000040801F1
:04FC0000FFFFFFFF04
:0400000508005FA1EF
:00000001FF
