:020000040800F2
:1040000000500020A57200085160000853600008AD
:104010005560000857600008596000080000000063
:104020000000000000000000000000005B600008CD
:104030005D600008000000005F600008616000082B
:10404000ED720008ED720008ED720008ED720008D4
:10405000ED720008ED720008ED720008ED720008C4
:10406000ED720008ED720008ED720008ED720008B4
:10407000ED720008ED720008ED720008ED720008A4
:10408000ED720008ED720008ED720008ED72000894
:10409000ED720008ED720008ED720008ED72000884
:1040A000ED720008ED720008ED720008ED72000874
:1040B000ED720008ED720008ED720008ED72000864
:1040C000ED720008ED720008ED720008ED72000854
:1040D000ED720008ED720008ED720008ED72000844
:1040E000ED720008ED720008ED720008000000009B
:1040F00000000000000000000000000000000000C0
:0C41000000000000000000005FF808F163
:10410C0080EA010C1CF0030F37D110F0030C20F0E7
:10411C00030021F0030150F8042B08BF51F8043BB5
:10412C000ED08CF0030C6FF07F434FEACC0C23FACB
:10413C000CFC51F8043B42EA0C0243EA0C0300BFAE
:10414C00A2F1013C9A4201BF2CEA020C1CF0803F08
:10415C0050F8042B51F8043BF2D04FEA02604FEABE
:10416C001222012828BFB0EB036F08BF1B0AF4D042
:10417C0003F0FF03000EC01A704710F0030F0AD0B3
:10418C0010F8012B11F8013B012A28BF9A42F4D0F8
:10419C00A2EB030070474DF8045D50F8042B01F0BE
:1041AC00030521F0030151F8043B022D26D04DD814
:1041BC0022F07F45B5EB132FA2F1013C2CEA020C47
:1041CC000DD11CF0803C08BF51F8043B0AD185EAA4
:1041DC000205B5EB036F0CD150F8042BE8E74FEA5E
:1041EC0013235BE03CF07F4C54D10B784FEA126503
:1041FC0054E04FEA126503F0FF034FE04FEA02452B
:10420C00A2F1013C4FEA15452CEA020CB5EB134F19
:10421C0018D11CF0803C08BF51F8043B07D185EA4B
:10422C000205B5EB034F09D150F8042BE6E75FEA22
:10423C000C4C2FD10B884FEA12452FE04FEA034369
:10424C004FEA12454FEA134328E000BF02F0FF0586
:10425C00B5EB136FA2F1013C2CEA020C0DD11CF052
:10426C00803C08BF51F8043B0AD185EA0205B5EB46
:10427C00032F0AD150F8042BE8E74FEA13630DE043
:10428C0012F0FF0F06D051F8043B4FEA122523F031
:10429C007F4303E04FF0000020BC704705F0FF02A5
:1042AC0003F0FF00012828BF904204BF2D0A1B0A0F
:1042BC00F4D0A2EB000020BC704700BF0348044BB5
:1042CC00834202D0034B03B1184770471000002003
:1042DC0010000020000000000548064B1B1AD90FE7
:1042EC0001EBA301491002D0034B03B118477047EF
:1042FC0010000020100000200000000010B5064C3B
:10430C00237843B9FFF7DAFF044B13B10448AFF33A
:10431C0000800123237010BD10000020000000005D
:10432C006475000808B5054B1BB105490548AFF38A
:10433C000080BDE80840FFF7CFBF00BF00000000C1
:10434C001400002064750008124A536A43F00103FC
:10435C005362104B5B6A13F0020FFAD00E4B45F20E
:10436C0055521A600C4BDB6813F0010FFAD10A4B53
:10437C0004225A60084BDB6813F0020FFAD1064B8B
:10438C0040F2E1429A604AF6AA221A604CF6CC42FC
:10439C001A6070470010024000300040024B4AF691
:1043AC00AA221A60704700BF003000402DE9F04788
:1043BC0088B004AD00240494059406940794384BFB
:1043CC009A6942F010029A619A6902F01002009206
:1043DC00009A9A6942F020029A619A6902F02002CE
:1043EC000192019A9A6942F004029A619A6902F068
:1043FC0004020292029A9A6942F008029A619B693D
:10440C0003F008030393039BDFF898A001224FF4F9
:10441C000051504602F0D9FC234F22464FF4804104
:10442C00384602F0D2FC22464FF40041384602F0E6
:10443C00CCFC1E4E22464FF48071304602F0C5FC77
:10444C004FF4005304934FF00109CDF814900694E7
:10445C004FF00208CDF81C802946504602F026FB8E
:10446C004FF440430493CDF814900694CDF81C807F
:10447C002946384602F01AFB4FF480730493294600
:10448C00304602F013FB4FF400630493059406943A
:10449C002946304602F00AFB08B0BDE8F08700BFA1
:1044AC000010024000100140000C014000080140C7
:1044BC0072B6FEE708B50A480A4B03604FF4E133C5
:1044CC00436000238360C36003610C2242618361FB
:1044DC00C36102F099FE00B908BDFFF7E9FF00BF08
:1044EC00B40000200038014008B50948094B0360AE
:1044FC00094B436000238360C36003610C2242615B
:10450C008361C36102F080FE00B908BDFFF7D0FFE4
:10451C007000002000440040A068060008B50A485E
:10452C000A4B03604FF4E133436000238360C360A4
:10453C0003610C2242618361C36102F065FE00B924
:10454C0008BDFFF7B5FF00BF2C000020004800405D
:10455C0008B501F043FD00B908BDFFF7A9FF000045
:10456C0000B58FB001F0A6FEFFF718FFFFF7F0FFC4
:10457C00FFF714FFFFF71AFFFFF710FFFFF79AFF83
:10458C00FFF70CFFFFF7B0FFFFF708FFFFF7C6FFC1
:10459C00FFF704FF184B0193184B0293184B03932E
:1045AC00184B04934FF40053ADF81430164B06938C
:1045BC004FF48042ADF81C2008934FF40043ADF843
:1045CC00243003F1804303F508430A934FF48072BF
:1045DC00ADF82C200C934FF40063ADF8343001A8E7
:1045EC0001F058FBFFF7B0FEFFF7D8FE01F090FB8F
:1045FC00FFF7D4FEFAE700BFB400002070000020E3
:10460C002C00002000100140000C0140BFF34F8F24
:10461C000549CA6802F4E062044B1343CB60BFF354
:10462C004F8F00BFFDE700BF00ED00E00400FA056E
:10463C000246F0B1016810484840516880EA4100D8
:10464C00D36880EA8300136980EAC300536980EA67
:10465C000310936980EA4310D36980EA8310136ACC
:10466C0080EAC310536A80EA0320936A80EA4320ED
:10467C0070470020704700BF3C5AC3A538B301688F
:10468C001E4A914225D14268012A24D1C268013ABE
:10469C00012A22D80269013AFD2A20D8426902B3C4
:1046AC00FE2A20D88269FF2A1FD8C269FF2A1ED889
:1046BC00026A012A1DD8426A012A1CD810B58468E6
:1046CC00FFF7B6FF844214BF0020012010BD00206C
:1046DC007047002070470020704700207047002072
:1046EC007047002070470020704700207047002062
:1046FC007047002070470020704700BF4346473288
:10470C0038B50748FFF7BAFF48B1064C044D0FCD3A
:10471C000FC40FCD0FC495E8070084E8070038BD1F
:10472C0000FC010808050020014B93F8F0037047CA
:10473C0028010020034BD3F8EC03012814BF002000
:10474C00012070472801002008B5FFF7F3FF18B9C6
:10475C00034BB3F8F00308BD4FF6FF70FBE700BF47
:10476C002801002038B505460C46FFF7EDFF2570F3
:10477C00C0F307236370A0702823E370034B93F8F6
:10478C00F823227193F8FC33637138BD28010020A3
:10479C00034BD3F8EC03022814BF00200120704710
:1047AC0028010020034BD3F80004003818BF012067
:1047BC00704700BF28010020034BD3F804040038D5
:1047CC0018BF0120704700BF2801002038B5114DDB
:1047DC00D5F8EC43240604F0706484F0624484F44D
:1047EC000004FFF7A1FF84EA0044D5F8F4331B035F
:1047FC0003F47F235C40FFF7A7FF4440D5F8F83360
:10480C001B029BB2634095F8FC03584080F0A0005B
:10481C0038BD00BF2801002010B52848FFF72EFF37
:10482C00002848D0254BDA68254BD3F8EC339A4254
:10483C0001D0002040E0214B1A69214BD3F8F03312
:10484C009A4201D0002037E01C4B5A691C4BD3F81C
:10485C00F4339A4201D000202EE0184B9A69184B81
:10486C00D3F8F8339A4201D0002025E0134BDA69D3
:10487C00134BD3F8FC339A4201D000201CE00F4BB1
:10488C001A6A0F4BD3F800349A4201D0002013E07F
:10489C000A4B5A6A0A4BD3F804349A4201D00020CE
:1048AC000AE0064B9C6AFFF791FF844201D000207E
:1048BC0002E0012000E0002010BD00BF00FC010858
:1048CC00280100200C4BB3F8441305290FD9002301
:1048DC008A1F92B29A4208D3074A1A4492F844208B
:1048EC00C02A06D001339BB2F2E7002070470020AB
:1048FC0070470120704700BF280100208C46B9B1D9
:10490C00831D9BB20D4AB2F84423934212D8002364
:10491C00052B0BD8C118094A0A4492F844101CF80C
:10492C000320914208D10133DBB2F1E7012070473B
:10493C00002070470020704700207047280100209D
:10494C00114BB3F84433052B02D80023184670479B
:10495C0010B582B06946C020FFF704FF00240A4B53
:10496C00B3F84433063B9BB2A34208D369462046B6
:10497C00FFF7C4FF034618B90134A4B2EFE70023D4
:10498C00184602B010BD00BF28010020024B4AF6A9
:10499C00AA221A60704700BF00300040024B002270
:1049AC00A3F86A24704700BF280100200023174A8F
:1049BC00B2F86A249A420CD9022B0AD8134A1A4428
:1049CC0092F83914124AD25C914216D101339BB23F
:1049DC00EDE7032A13D90D4B93F83C34202B08D860
:1049EC000A2B0ED30A3BDBB20A48D84000F0010078
:1049FC0070473F2B07D101207047002070470120E2
:104A0C007047002070470020704700BF280100202D
:104A1C00F877000809004000002858D030B505464A
:104A2C00002A56D0012943D90378302B45D143783D
:104A3C00782B45D0582B03D101244FF0020E39E0CE
:104A4C000024A64636E0BCF1600F46D9BCF1660FD7
:104A5C0045D8ACF1570C5FFA8CF014B340EA031351
:104A6C009BB20EF1010E1FFA8EFE01208E452BD249
:104A7C0015F80EC0BCF10D0F26D0BCF10A0F23D0D7
:104A8C00ACF13000C0B20928E7D924B3BCF1400F17
:104A9C00D9D9BCF1460FD6D8ACF1370C5FFA8CF0F3
:104AAC00DBE703EB83035B009BB203449BB2D8E7C9
:104ABC000024A64600200346D8E70024A646F9E7C2
:104ACC0001244FF0020EF5E700B1138030BD002039
:104ADC0070470020FAE72046F8E70020F6E70020B0
:104AEC00F4E70000002867D070B50646002965D0B1
:104AFC00002A65D0002B65D00420354CB4F86A44EC
:104B0C00844222D9324C044494F83944202C02D1EA
:104B1C00013080B2F1E7002405E0013080B21FFAC9
:104B2C008CF406F80E502A4DB5F86AE486450ED979
:104B3C0005EB000C9CF839543D2D08D0A64604F129
:104B4C00010C8C45E9D3002039E00024EBE7002C64
:104B5C003AD086453AD90021315501301FFA80FCF4
:104B6C000CF101011A48B0F86A04814211D21848BC
:104B7C00604490F83904302801D000210AE0144830
:104B8C00014491F83914782912D0582912D00021F7
:104B9C0000E0002119700CF587600D4B1844B3F838
:104BAC006A14A1EB0C0189B20130FFF735FF06E066
:104BBC000121EFE70121EDE700207047002070BDD7
:104BCC000020FCE70020FAE70020F8E70020F6E7D9
:104BDC002801002020B10022A0F84420A0F8462093
:104BEC00704710B50446FFF79FFDA04205D0FF2C7F
:104BFC0001D0002010BD0120FCE70120FAE784461B
:104C0C0058B10020034605E01CF803201044C0B244
:104C1C0001339BB28B42F7D3704700207047C0B171
:104C2C0038B50546062916D90378A52B15D1427837
:104C3C00131FDBB23C2B12D80332914211D14C1E04
:104C4C00A1B2FFF7DCFF2B5D834214BF00200120D3
:104C5C0002E000207047002038BD0020FCE7002057
:104C6C00FAE70020F8E70000034628B331B30268E6
:104C7C00106810F0200F23D052680A701B68114A7C
:104C8C00934207D0104A93420AD0104A93420DD057
:104C9C00012070470E4A13680133136001207047DE
:104CAC000C4A136801331360012070470A4A1368D9
:104CBC0001331360012070470020704700207047BB
:104CCC00002070470038014000440040004800407C
:104CDC00240100201C0100201401002000B583B029
:104CEC000DF10701044B1868FFF7BEFF0028F7D140
:104CFC0003B05DF804FB00BF280100208446E0B13E
:104D0C00DAB11F290AD9002315E04FF4787122F883
:104D1C00131001339BB20F2BF7D970470023FAE71E
:104D2C001CF813100CEB4300407841EA002122F8E8
:104D3C00131001339BB20F2BF2D9704738B50F4DBE
:104D4C002C220021284602F0FBFAA5F578740C4BB6
:104D5C00C4F8E03301236B600222EA602B616B61C3
:104D6C001822AA610422EA612B626B624FF0FF33B6
:104D7C00AB622846FFF75CFCA86038BD0805002034
:104D8C004346473270B504460E4601F0B1FA05466B
:104D9C004CB123681A6812F0800F05D101F0A8FA03
:104DAC00431B092BF5D970BD5E6023680B4A9342F7
:104DBC000AD00B4A93420CD00A4A9342F3D10A4AC6
:104DCC00136801331360EEE7084A1368013313606C
:104DDC00E9E7074A136801331360E4E70038014040
:104DEC000044004000480040100100202001002039
:104DFC001801002078B1F8B50D461646074649B1A2
:104E0C00002405E0295D3846FFF7BCFF0134A4B24D
:104E1C00B442F7D3F8BD704708B50A460146024BB9
:104E2C001868FFF7E7FF08BD2801002030B583B0F4
:104E3C0005460C46A5238DF8003005238DF801306E
:104E4C00104B93F8F4338DF80230FFF76DFC8DF8AE
:104E5C0003008DF8045044F080048DF805400023C5
:104E6C008DF8063007216846FFF7C9FE8DF807005C
:104E7C0008216846FFF7D0FF034A1368013313601B
:104E8C0003B030BD280100200001002028B170B50E
:104E9C0082B00D460646002412E070470D228DF8B4
:104EAC000620AB421FD000228DF80720114A506813
:104EBC00AB421AD0032201A9FFF79CFF0134A4B224
:104ECC00AC4214D2335D1B090B4AD35C8DF8043011
:104EDC00335D03F00F03D35C8DF80530631CAB42DC
:104EEC00DCD02022DBE70A22DEE70422E3E702B073
:104EFC0070BD00BF28010020FC77000800B583B00E
:104F0C00020B0E4B9A5C8DF80420C0F303229A5CC2
:104F1C008DF80520C0F303129A5C8DF8062000F082
:104F2C000F001B5C8DF8073004220DEB0201044BC3
:104F3C005868FFF75FFF03B05DF804FBE4770008E7
:104F4C002801002010B5084C012384F8D83384F8CC
:104F5C00D90384F8DA1384F8DB2301F0C9F900F5DE
:104F6C00FA70C4F8DC0310BD280100202DE9F047CD
:104F7C0088B004460E461546FFF751FE002852D065
:104F8C0025B1032E02D9A378A52B54D0A77894F879
:104F9C0004A094F8058094F90590002D7FD0384634
:104FAC00FFF71FFE002855D0464A136801331360E3
:104FBC00B8F1100F53D032462146434B5868FFF7D7
:104FCC0019FFFFF7E5FB30B1FFF7F6FB18B1FFF760
:104FDC00ABFBB8425BD0FFF7ADFB48B3FFF7ECFB84
:104FEC0030B3B9F1000F23DA374B93F8D833FBB158
:104FFC00E278354B93F8D9339A4219D1324B93F866
:10500C00DA33534514D1304B93F8DB3308F07F0877
:10501C0043450DD12C4B002283F8D8232B4A13681F
:10502C000133136004E01DB1294A13680133136086
:10503C0008B0BDE8F087A71C94F8018041463846BB
:10504C00FFF7EDFD0028A1D0012241463846FFF7BD
:10505C008DFFEDE71E4A136801331360E8E7F11F7B
:10506C006A4689B2A01DFFF749FE174F07F20C469E
:10507C006C460FCC0FC694E80F0086E80F00012396
:10508C0087F8383401F034F9C7F82C04D0E7B9F1BB
:10509C00000FA0DB41465046FFF7C8FE9BE7FFF729
:1050AC0049FB0028C4D0FFF787FB0028C0D0FF2F96
:1050BC00BED0B9F1000FBBDB424651463846FFF774
:1050CC0041FFB5E70801002028010020FC0000206A
:1050DC0004010020002848D038B515460446B0F825
:1050EC0044307BB9A52905D0D2B1204A13680133CD
:1050FC00136015E05A1CA0F84420C1540023A0F8FA
:10510C0046300DE0581C80B2A4F84400E15402284B
:10511C0007D0B4F8461009B1884214D242281AD8E4
:10512C0038BD0B1FDBB23C2B03D80331A4F846105F
:10513C00EFE72046FFF74EFD002DF1D00B4A136828
:10514C0001331360ECE72A462046FFF70FFF204699
:10515C00FFF740FDE4E72046FFF73CFD002DDFD0D4
:10516C00024A136801331360DAE770470401002028
:10517C0010B504460146074B1868FFF703FEFFF70E
:10518C0011FB00B910BD002221460348FFF7A2FF16
:10519C00F8E700BF280100206E040020124B1B68AA
:1051AC000BB3114B5B6813B100B583B006E07047CD
:1051BC009DF807100C4B5868FFF7E4FD0DF1070143
:1051CC00094B1868FFF750FD50B1FFF7EBFA0028B8
:1051DC00EED001229DF807100448FFF77BFFEDE7A6
:1051EC0003B05DF804FB704728010020B6040020D2
:1051FC0008B5FFF79FFA30B1FFF7DEFA18B10B4B89
:10520C0093F8D83303B908BD01F072F8074BD3F803
:10521C00DC33C01A0028F6DB044B002283F8D823B9
:10522C00034A136801331360EDE700BF2801002027
:10523C00F800002070B582B006460C4601F058F814
:10524C0005461B4B0022A3F8442301F051F8401BE8
:10525C00B0422BD2FFF79AFB01F04AF803464FF409
:10526C00FA720121134800F0A7FE00E0BCB90DF161
:10527C0007010F4B1868FFF7F7FC0028E5D00C4B23
:10528C00B3F84433B3F5407FF0D2094AD1189DF8F6
:10529C00070081F844000133A2F84433E6E79DF897
:1052AC000710034B5868FFF76DFDE0E702B070BDC7
:1052BC00280100205C01002030B583B00446104B5F
:1052CC001B68ADF804301B0C8DF80630032101A8C7
:1052DC00FFF7A2FD002140F69800FFF7ABFFFFF7A8
:1052EC00F1FA054610B9284603B030BD002CFAD0AF
:1052FC000448B0F844134430FFF7C8FDF3E700BF8F
:10530C007C7500082801002038B500F0F1FF054637
:10531C0000F0EEFF401BB0F57A7F16D2FFF736FB9C
:10532C0000F0E6FF0346094C4FF4FA7201212046C7
:10533C0000F042FE54F8080C0028E9D0A4F1340324
:10534C00198E01F03BFD0128E2D138BD5C01002033
:10535C0010B5094C0022218B606901F036FD00224A
:10536C00218CE06901F031FD0122218D606A01F090
:10537C002CFDFFF7C9FF10BD2801002010B5094C0A
:10538C000122218B606901F020FD0122218CE06952
:10539C0001F01BFD0122218D606A01F016FDFFF763
:1053AC00B3FF10BD2801002030B591B00546002395
:1053BC000B93EC46274C0FCCACE80F000FCCACE8B1
:1053CC000F0094E807008CE807002C4615B1FFF796
:1053DC0023FA30BB204B0093012301931CB3FFF73E
:1053EC00F5F90A906846FFF723F9029001F0A4FD45
:1053FC0000230C93194B0E9301230F930BA90CA8AC
:10540C0001F066FE90B101F0B1FD124CEC46BCE827
:10541C000F000FC4BCE80F000FC49CE8070084E821
:10542C00070011B030BD4FF0FF30DAE700240B4D10
:10543C000A2CE8D810AB03EB840353F8402C002360
:10544C002946022001F0D0FD0028DCD104350134BE
:10545C00EEE700BF080500204346473200FC010878
:10546C0008B50120FFF7A0FF08BD000050B110B532
:10547C00044601F0DFFF82B22146034B5868FFF768
:10548C00B9FC10BD704700BF2801002030B583B0B7
:10549C0005466946C020FFF765F906216846FFF707
:1054AC00BBFC00214FF41670FFF7C4FEFFF748FA5F
:1054BC00044690B3214B5B6813B12148FFF7D6FF2C
:1054CC00C2238DF800308DF801308DF802300321A5
:1054DC006846FFF7A1FCC82000F010FF174B5B6873
:1054EC0013B11848FFF7C2FFC3238DF800308DF8B5
:1054FC0001308DF8023003216846FFF78DFC4FF424
:10550C007A7000F0FBFE0D4B5B6813B10E48FFF791
:10551C00ADFF55B9204603B030BD084B5B68002B7E
:10552C00F8D00A48FFF7A2FFF4E70448B0F8441398
:10553C004430FFF7ABFC2C46ECE700BF2801002001
:10554C009C750008B4750008C475000880750008C7
:10555C0010B52548FFF78AFFFFF7ECF800283CD080
:10556C002248FFF783FF2248FFF780FFFFF7DCF8A4
:10557C00FFF7C4FC1F48FFF779FF1F4CB4F8F40386
:10558C00FFF7BCFC1D48FFF771FFB4F8F803FFF7F9
:10559C00B5FC1B48FFF76AFFB4F8FC03FFF7AEFC41
:1055AC001848FFF763FFFFF7FDF8C0B11648FFF787
:1055BC005DFF1648FFF75AFFFFF7FEF888B1124857
:1055CC00FFF754FF1248FFF751FFFFF7BDF8FFF745
:1055DC0095FC1048FFF74AFF10BD0F48C1E70F4874
:1055EC00E5E70E48ECE700BFF0750008D875000839
:1055FC00FC750008047600082801002010760008CD
:10560C001876000824760008E87500083076000843
:10561C003876000840760008E0750008EC75000844
:10562C0008B5064B002283F86C2483F87424A3F885
:10563C006A240348FFF71AFF08BD00BF28010020A9
:10564C004476000808B5084B93F86C3403B908BDD0
:10565C0000F04EFE044BD3F87034C01A0028F6DB71
:10566C00FFF7DEFFF3E700BF2801002090B138B54B
:10567C000C46054643688B420ED001F0F4FD08B190
:10568C0000200AE06C60284601F0BEFDB0FA80F004
:10569C00400902E000207047012038BD38B50546AE
:1056AC000C46FFF76BFE2946074B1868FFF7DEFF29
:1056BC00FFF714FB00214FF49660FFF7BBFD20466B
:1056CC00FFF7FAFD38BD00BF2801002090B170B57E
:1056DC000D46064600240CB1002070BD29464FF43F
:1056EC001650FFF7DBFF08B90134F4E74FF41653FB
:1056FC003360F2E70020704710B582B04FF41653B8
:10570C0001932D4B1B68002B53D02C4A136801338B
:10571C001360294B5B6813B12948FFF7A7FE0021E2
:10572C0040F6B830FFF786FD002101A8FFF7CEFF49
:10573C00044680B9204B5B6813B12248FFF796FEF4
:10574C004FF4E1311C4B1868FFF790FFFFF700FE98
:10575C00204602B010BD0020FFF7AEFD78B9164B05
:10576C005B6823B31848FFF781FE00244FF4E13146
:10577C00114B1868FFF77AFFFFF7EAFDE8E7002006
:10578C00FFF784FE0028EAD00020FFF795FD0028E3
:10579C00E5D0FFF7D5F804460028E0D0064B5B684F
:1057AC0013B10A48FFF762FEFFF75AFEDEE700244A
:1057BC00DCE70124CCE700BF280100200C0100200D
:1057CC00547600086C760008A476000894760008DD
:1057DC00F0B138B50546104BB3F86A440E2C06D917
:1057EC000B220E4903F23D4001F07CFD48B10D2C1B
:1057FC0010D90A220A490B4801F074FD20B100208F
:10580C0009E00120286006E002232B60012002E061
:10581C0000207047002038BD28010020C876000801
:10582C00D47600086505002010B586B00023ADF8CD
:10583C000E30022202928DF807308C4BB3F86A348A
:10584C00032B25D9894BD3F8383423F0FF03884A2E
:10585C0093421DD1854B93F83C34202B16D80A2B40
:10586C0016D3A3F10A01C9B2824ACA4012F0010F41
:10587C000ED03F2B03D00D2B01D00A2B0CD1FFF7F0
:10588C0067FE7A4B0022A3F86A2403E03F2BF0D08A
:10589C00FFF784F806B010BD02A8FFF799FF38B1E6
:1058AC00724B029AC3F8EC237348FFF7DFFDE8E76D
:1058BC000DF107030DF10E02082104A8FFF712F9F0
:1058CC00002800F0A2806D4904A8FEF719FC80B9ED
:1058DC00BDF80E20531E9BB2FD2B03D96848FFF771
:1058EC00C5FDCEE7614BC3F8F0236348FFF7BEFD5F
:1058FC00C7E7644904A8FEF703FC80B9BDF80E2085
:10590C00531E9BB2FD2B03D95F48FFF7AFFDB8E7E1
:10591C00564BC3F8F4235848FFF7A8FDB1E75B4991
:10592C0004A8FEF7EDFBF8B99DF807306BB9BDF88C
:10593C000E20632A09D80A20B2FBF0F10B019BB2AE
:10594C0000FB11221343ADF80E30BDF80E30FF2BC7
:10595C0003D94F48FFF78AFD93E7444AC2F8F8335E
:10596C004548FFF783FD8CE74A4904A8FEF7C8FBBE
:10597C00F8B99DF807306BB9BDF80E20632A09D829
:10598C000A20B2FBF0F10B019BB200FB1122134376
:10599C00ADF80E30BDF80E30FF2B03D93E48FFF7A3
:1059AC0065FD6EE7314AC2F8FC333348FFF75EFD04
:1059BC0067E73A4904A8FEF7A3FB70B9BDF80E30AF
:1059CC00012B03D93648FFF751FD5AE7274AC2F895
:1059DC0000342948FFF74AFD53E7324904A8FEF783
:1059EC008FFB70B9BDF80E30012B03D92E48FFF791
:1059FC003DFD46E71D4AC2F804341F48FFF736FD4B
:105A0C003FE72A48FFF732FD3BE7184BB3F86A44EF
:105A1C00082C06D90422264903F23D4001F062FC11
:105A2C0058B10B2C05D907222249234801F05AFC06
:105A3C0098B12248FFF71AFD23E7FFF7B5FC204881
:105A4C00FFF714FDFFF7ECFD322000F057FC1D4B67
:105A5C004AF6AA221A60FEF7D9FDFFF76FF900206B
:105A6C00FFF7A2FC0448FFF701FD0AE7280100201C
:105A7C000043464709004000E0760008E87600083D
:105A8C00EC760008FC76000804770008187700080C
:105A9C001C7700082C77000834770008487700083A
:105AAC00507700086477000868770008787700085A
:105ABC0084770008A877000865050020B0770008F7
:105ACC008C7700080030004030B583B00546434B5E
:105ADC001B68ADF804301B0C8DF80630404B93F866
:105AEC006C34002B3ED13E4B93F8743403F1080216
:105AFC006A4412F8042C824201D0002423E00133C2
:105B0C00DBB2374A82F87434022B28D914460123AD
:105B1C0082F86C3400F0ECFB00F59C500830C4F8B3
:105B2C007004002384F87434A4F86A342D48FFF709
:105B3C009DFC14E004F108036B4413F8040CFFF70C
:105B4C0017FB0134E4B2264B93F87434A342F1D81A
:105B5C00234B002283F874242846FFF709FB01200D
:105B6C0003B030BD1E4BB3F86A3483B94328F6D169
:105B7C001B4C5A1CA4F86A24234483F8390400F003
:105B8C00B7FB00F59C500830C4F87004E7E72F2BE6
:105B9C001ED8134C5A1CA4F86A24234483F83904E5
:105BAC0000F0A6FB00F59C500830C4F87004FEF71A
:105BBC00FDFE80B10D2D08D00A2D06D0084BB3F890
:105BCC006A34042BCBD13F2DC9D1FFF72DFEC6E78C
:105BDC00FEF7E4FEC3E7FEF7E1FEC0E7CC77000872
:105BEC0028010020BC7700080F4B5B68D3B10E4B2B
:105BFC001B689BB100B583B00DF107010A4B5868C7
:105C0C00FFF732F858B19DF80700FFF75DFF002849
:105C1C00F2D19DF80700FFF7ABFAEDE7704703B040
:105C2C005DF804FB704700BF2801002038B500F078
:105C3C005FFB0446FEF7ACFD00B3144BD3F82C34D9
:105C4C00E3B1E31AB3F5967F12D2104B93F83834C4
:105C5C00A3B10E4BD3F83034E31A132B0ED90C49E5
:105C6C00A1F20C45686800F031F9C5F8304405E044
:105C7C00064BD3F83434E31A632B00D838BD034DEC
:105C8C00686800F057F9C5F83444F7E7280100209C
:105C9C0034050020F0B583B004461C4D4FF48F62E0
:105CAC000021284601F04CFBAE46A446BCE80F0090
:105CBC00AEE80F00BCE80F00AEE80F00BCE80F0028
:105CCC00AEE80F00DCF80030CEF80030FFF736F805
:105CDC00FEF716FD002485F86C4485F87444A5F88D
:105CEC006A44EE682F8A00F003FB019001230093B5
:105CFC0023463A46314605F1340000F04FF9FFF7E0
:105D0C0027FBFFF7F9FC03B0F0BD00BF2801002012
:105D1C0010B500F0EDFA0446FFF766FFFFF73EFA08
:105D2C00FFF766FAFFF782FFFFF78CFC23464FF470
:105D3C00FA720121014800F03FF910BD5C0100200E
:105D4C00AB2804D940F21373984202D87047AC20A8
:105D5C00704740F21370704703780B7003884288C9
:105D6C00C3F3022343EAC2034B7043888288C3F314
:105D7C00451343EA82138B708388C3F38703CB707C
:105D8C008388C288C3F3802343EA42030B71C38820
:105D9C000289C3F3C31343EA02134B71038942898B
:105DAC00C3F3061343EAC2138B714389C3F347034E
:105DBC00CB7143898289C3F3412343EA82030B727B
:105DCC008389C289C3F3841343EA42134B72C38998
:105DDC00C3F3C7038B72037CCB72038A428AC3F36F
:105DEC00022343EAC2030B73438A828AC3F345132B
:105DFC0043EA82134B73838AC3F387038B73838ABF
:105E0C00C28AC3F3802343EA4203CB73C38A028B57
:105E1C00C3F3C31343EA02130B74038B428BC3F318
:105E2C00061343EAC2134B74438BC3F347038B74BF
:105E3C00438B828BC3F3412343EA8203CB74838B62
:105E4C00C28BC3F3841343EA42130B75C38BC3F3A6
:105E5C00C7034B7570478446002210460FE0400084
:105E6C00C0B280F0D5000133DBB2072B05D810F09F
:105E7C00800FF4D14000C0B2F5E70132D2B28A42B1
:105E8C0004D21CF8023058400023EEE77047E0B112
:105E9C002DE9F0410F469046054679B1002646455E
:105EAC000CD200F025FA04462B681A6812F0800F09
:105EBC0006D100F01DFA001B0928F5D9BDE8F081C8
:105ECC00BA5D5A600136F6B2E9E7704788B3F0B5AF
:105EDC0091B00E46074651B300240CE0650036F82D
:105EEC001400FFF72DFF05F140030DEB030525F81A
:105EFC003C0C0134E4B20F2CF0D9C8238DF82430BB
:105F0C0018238DF8253016238DF826300DF1270136
:105F1C0001A8FFF721FF17210DF12600FFF79BFFCA
:105F2C008DF83D001A2209A93846FFF7B0FF11B0D1
:105F3C00F0BD704700B589B04FF47873ADF8003000
:105F4C00ADF80230AC22ADF80420ADF80630ADF857
:105F5C000820052308E008AA02EB43024FF47871ED
:105F6C0022F8201C0133DBB20F2BF4D96946FFF762
:105F7C00ADFF09B05DF804FB08B50123037382790A
:105F8C008188006800F021FF08BD08B50023037369
:105F9C00C2798188006800F018FF08BD08B501605F
:105FAC00828083719DF80830C371039B836000234A
:105FBC000373FFF7EAFF08BD08B549B18168591AA8
:105FCC00914204D38360037B2BB1FFF7DEFF08BD46
:105FDC00FFF7DBFFFBE7FFF7CFFFF8E710B594B057
:105FEC000AAC28220021204601F0AAF900230593CF
:105FFC0006930793089309930193029303930493D5
:10600C0001230A934FF480330B93204600F0A0F940
:10601C0010B1012014B010BD0F230593012306937A
:10602C00002107910891099105A800F0D7FB08B150
:10603C000120EFE7022301930023039301A800F052
:10604C00A9FCE7E77047FEE7FEE7FEE7FEE77047CF
:10605C007047704708B500F03FF908BD82B00E4B91
:10606C009A6942F001029A619A6902F00102009267
:10607C00009ADA6942F08052DA61DB6903F08053EE
:10608C000193019B054A536823F0E06343F00073CE
:10609C00536002B0704700BF001002400000014086
:1060AC0030B58BB0002306930793089309930368CC
:1060BC00464A934207D0464A934230D0454A9342CF
:1060CC0057D00BB030BD444B9A6942F480429A6170
:1060DC009A6902F480420092009A9A6942F0040292
:1060EC009A619B6903F004030193019B4FF40073C5
:1060FC000693022307930323099306AD374C2946D5
:10610C00204600F0D3FC4FF48063069300230793E2
:10611C00012308932946204600F0C8FCD1E72E4BFA
:10612C00DA6942F40032DA61DA6902F4003202927E
:10613C00029A9A6942F004029A619B6903F0040383
:10614C000393039B042306930223079303230993CE
:10615C0006AD224C2946204600F0A8FC08230693E5
:10616C0000230793012308932946204600F09EFC48
:10617C00A7E7194BDA6942F48022DA61DA6902F492
:10618C0080220492049A9A6942F008029A619B69EF
:10619C0003F008030593059B4FF4806306930223D9
:1061AC0007930323099306AD0D4C2946204600F0B6
:1061BC007DFC4FF40063069300230793012308939F
:1061CC002946204600F072FC7BE700BF00380140F6
:1061DC00004400400048004000100240000801400C
:1061EC00000C014008B50368164A934206D0164AC3
:1061FC0093420FD0154A934217D008BD02F558426E
:10620C00936923F4804393614FF4C061104800F00C
:10621C0057FDF2E702F5E632D36923F40033D3617C
:10622C000C210B4800F04CFDE7E702F5E432D36992
:10623C0023F48023D3614FF44061064800F040FD05
:10624C00DBE700BF0038014000440040004800403C
:10625C0000080140000C0140014B024A9A60704753
:10626C0000ED00E00040000810B504460E4B1A7813
:10627C004FF47A73B3FBF2F30C4A1068B0FBF3F0F3
:10628C0000F000FE68B90F2C01D901200AE00022B1
:10629C0021464FF0FF3000F0E5FD054B1C6000205F
:1062AC0000E0012010BD00BF040000200000002011
:1062BC000800002008B5074A136843F01003136068
:1062CC00032000F0BDFD0020FFF7CEFFFFF7C6FE58
:1062DC00002008BD00200240034A1168034B1B78C4
:1062EC000B441360704700BFA00500200400002081
:1062FC00014B1868704700BFA005002038B5044654
:10630C00FFF7F6FF0546B4F1FF3F02D0044B1B78B4
:10631C001C44FFF7EDFF401BA042FAD338BD00BF71
:10632C000400002082B0084B1B68084AA2FB032320
:10633C005B0A00FB03F3019300BF019B5A1E019201
:10634C00002BF9D102B0704700000020D34D621031
:10635C00002800F0F18170B582B00446036813F098
:10636C00010F2CD0994B5B6803F00C03042B1DD050
:10637C00964B5B6803F00C03082B12D06368B3F5E3
:10638C00803F41D0002B55D103F1804303F50433FA
:10639C001A6822F480321A601A6822F480221A6079
:1063AC0037E08A4B5B6813F4803FE7D0874B1B6860
:1063BC0013F4003F03D06368002B00F0BF81236807
:1063CC0013F0020F75D0814B5B6813F00C0F5FD08C
:1063DC007E4B5B6803F00C03082B54D02369002B15
:1063EC0000F08A807A4B01221A60FFF781FF054684
:1063FC00764B1B6813F0020F75D1FFF779FF401B2A
:10640C000228F5D903209EE1704A136843F48033C7
:10641C001360636843B3FFF76BFF05466B4B1B6858
:10642C0013F4003FCBD1FFF763FF401B6428F5D971
:10643C00032088E1B3F5A02F09D0644B1A6822F42D
:10644C0080321A601A6822F480221A60E1E703F1A4
:10645C008043A3F53C331A6842F480221A601A6810
:10646C0042F480321A60D4E7FFF742FF0546574BDF
:10647C001B6813F4003FA2D0FFF73AFF401B6428BF
:10648C00F5D903205FE1514B5B6813F4803FA5D134
:10649C004E4B1B6813F0020F03D02369012B40F005
:1064AC004F814A4A136823F0F803616943EAC10338
:1064BC001360236813F0080F33D0A369002B5CD052
:1064CC00434B0122C3F88024FFF712FF05463F4BD4
:1064DC005B6A13F0020F21D1FFF70AFF401B022861
:1064EC00F5D903202FE1394A136823F0F8036169C9
:1064FC0043EAC1031360DCE7354B00221A60FFF757
:10650C00F7FE0546314B1B6813F0020FD1D0FFF795
:10651C00EFFE401B0228F5D9032014E10120FFF700
:10652C0001FF236813F0040F00F09680274BDB6902
:10653C0013F0805F34D1254BDA6942F08052DA6176
:10654C00DB6903F080530193019B0125214B1B68F0
:10655C0013F4807F26D0E368012B3DD0002B53D160
:10656C0003F1804303F504331A6A22F001021A6224
:10657C001A6A22F004021A6233E0154B0022C3F8A7
:10658C008024FFF7B5FE0546104B5B6A13F0020F33
:10659C00C7D0FFF7ADFE401B0228F5D90320D2E08F
:1065AC000025D3E70B4A136843F480731360FFF79D
:1065BC009FFE0646074B1B6813F4807FCBD1FFF779
:1065CC0097FE801B6428F5D90320BCE00010024024
:1065DC0000004242007000405F4A136A43F001031E
:1065EC001362E36833B3FFF783FE06465A4B1B6A0C
:1065FC0013F0020F2FD1FFF77BFE801B41F2883383
:10660C009842F3D903209EE0052B09D0524B1A6A0D
:10661C0022F001021A621A6A22F004021A62E0E7FE
:10662C004D4B1A6A42F004021A621A6A42F00102D5
:10663C001A62D6E7FFF75CFE0646474B1B6A13F05F
:10664C00020F08D0FFF754FE801B41F288339842AA
:10665C00F3D9032077E0E5B9E369002B72D03E4A09
:10666C00526802F00C02082A56D0022B17D03B4B72
:10667C0000221A66FFF73CFE0446374B1B6813F0EA
:10668C00007F47D0FFF734FE001B0228F5D903200A
:10669C0059E0314AD36923F08053D361DCE72F4BA7
:1066AC0000221A66FFF724FE05462B4B1B6813F0DD
:1066BC00007F06D0FFF71CFE401B0228F5D90320F3
:1066CC0041E0236AB3F5803F1AD023494B6823F489
:1066DC007413226A606A024313434B601F4B0122FE
:1066EC001A66FFF705FE04461B4B1B6813F0007F70
:1066FC000ED1FFF7FDFD001B0228F5D9032022E087
:10670C00154A536823F40033A1680B435360DCE74C
:10671C00002018E0002016E0012B16D00E4B5B6811
:10672C0003F48031226A914211D103F47013626A2E
:10673C0093420ED1002006E001207047012002E0B8
:10674C00012000E0002002B070BD0120FBE7012019
:10675C00F9E70120F7E700BF0010024000004242B9
:10676C0086B0194B0FCB0DF1180C0CE90F0040F251
:10677C000123ADF80430154B5B6803F00C02042ABE
:10678C001CD0082A1DD1C3F3834218326A4412F874
:10679C00100C13F4803F0DD00C4B5B68C3F34043DB
:1067AC0018336B4413F8143C094A02FB00F0B0FB9D
:1067BC00F3F004E0074B03FB00F000E0044806B0E4
:1067CC0070470548FBE700BFD07700080010024077
:1067DC00001BB70000093D0000127A00002800F0F1
:1067EC00A08070B50D460446524B1B6803F007039E
:1067FC008B420BD24F4A136823F007030B431360F1
:10680C00136803F007038B4240F08D80236813F06C
:10681C00020F17D013F0040F04D0474A536843F407
:10682C00E0635360236813F0080F04D0424A5368A6
:10683C0043F460535360404A536823F0F003A1685B
:10684C000B435360236813F0010F31D06368012BA5
:10685C0020D0022B25D0384A126812F0020F64D0D7
:10686C0035494A6822F0030213434B60FFF740FDA1
:10687C000646314B5B6803F00C036268B3EB820F86
:10688C0016D0FFF735FD801B41F288339842F0D9C2
:10689C00032045E0284A126812F4003FE0D10120A1
:1068AC003EE0254A126812F0007FD9D1012037E072
:1068BC00204B1B6803F00703AB420AD91D4A13682F
:1068CC0023F007032B431360136803F00703AB4259
:1068DC002DD1236813F0040F06D0174A536823F404
:1068EC00E063E1680B435360236813F0080F07D093
:1068FC00114A536823F46053216943EAC10353607E
:10690C00FFF72EFF0C4B5B68C3F303130B4AD35CEE
:10691C00D8400B4B18600B4B1868FFF7A5FC0020F8
:10692C0070BD012070470120FAE70120F8E7012033
:10693C00F6E700BF00200240001002401878000863
:10694C000000002008000020014B1868704700BFB1
:10695C000000002008B5FFF7F7FF044B5B68C3F39A
:10696C000223034AD35CD84008BD00BF001002408C
:10697C001078000808B5FFF7E7FF044B5B68C3F31A
:10698C00C223034AD35CD84008BD00BF00100240AC
:10699C001078000870B582B00446036813F0010F3C
:1069AC0036D03F4BDB6913F0805F4AD13C4BDA6940
:1069BC0042F08052DA61DB6903F080530193019B52
:1069CC000125384B1B6813F4807F3CD0344B1B6A79
:1069DC0013F4407313D0626802F440729A420ED0E2
:1069EC002F4A136A23F440702F490126C1F84064E2
:1069FC000026C1F84064106213F0010F37D1284A09
:106A0C00136A23F4407361680B431362002D3FD16A
:106A1C00236813F0020F06D0214A536823F4404335
:106A2C00A1680B435360236813F0100F35D01C4A38
:106A3C00536823F48003E1680B435360002002B0D9
:106A4C0070BD0025BDE7174A136843F480731360CB
:106A5C00FFF74EFC0646134B1B6813F4807FB5D131
:106A6C00FFF746FC801B6428F5D90320E7E7FFF706
:106A7C003FFC06460A4B1B6A13F0020FBFD1FFF70F
:106A8C0037FC801B41F288339842F3D90320D6E7B8
:106A9C00D36923F08053D361BAE70020CFE700BF5E
:106AAC0000100240007000400000424270B582B0FD
:106ABC000024A4469EE07C4DAB4214D00CD8A5F526
:106ACC008015AB420FD005F57025AB420BD0A5F568
:106ADC008015AB421FD106E0744DAB4203D005F5D7
:106AEC008035AB4217D18B68A3B1012B0DD042611D
:106AFC00082410E0CC680EE0CC6804340BE0CC68C1
:106B0C00083408E0CC680C3405E00261082402E08B
:106B1C00002400E00424BEF1FF0F37D806464FEAEC
:106B2C008C0233680F25954023EA050304FA02F220
:106B3C00134333604B6813F0805F59D05C4B9A69F8
:106B4C0042F001029A619B6903F001030193019BDE
:106B5C004FEA9C02951C574B53F825600CF003052B
:106B6C00AD000F23AB4026EA0306534B984214D0DA
:106B7C0003F58063984279D003F58063984277D00F
:106B8C0003F58063984206D0042307E0061DACF1A0
:106B9C0008029200C5E7032300E00023AB40334317
:106BAC000232444D45F822304B6813F4803F61D0DB
:106BBC00424A136843EA0E0313604B6813F4003F18
:106BCC005ED03E4A536843EA0E0353604B6813F49D
:106BDC00801F5BD0394A936843EA0E0393604B687D
:106BEC0013F4001F58D0354AD36843EA0E03D36020
:106BFC000CF1010C0B6833FA0CF253D0012202FA9F
:106C0C000CF203EA020E32EA0303F1D14B68122BA9
:106C1C003FF651AF122B3FF67EAF01A555F823F08E
:106C2C00F36A0008016B00080B6B00081D6B000871
:106C3C00236B0008236B0008236B0008236B0008F0
:106C4C00236B0008236B0008236B0008236B0008E0
:106C5C00236B0008236B0008236B0008236B0008D0
:106C6C00236B0008056B0008116B0008012395E7E6
:106C7C00022393E7114A136823EA0E0313609CE77F
:106C8C000E4A536823EA0E0353609FE70B4A93683E
:106C9C0023EA0E039360A2E7084AD36823EA0E03A3
:106CAC00D360A5E702B070BD0000221000003110C7
:106CBC0000100240000001400008014000040140A7
:106CCC0000226BE0032500E0002505FA04F464457E
:106CDC0042D0FF2B5AD886469500DEF800404FF084
:106CEC000F0C0CFA05FC24EA0C044FF0040C0CFA03
:106CFC0005FC44EA0C04CEF80040C46824EA030303
:106D0C00C360013231FA02F346D0012393400B40A9
:106D1C00F7D09608B51C264C54F8255002F0030405
:106D2C00A4004FF00F0C0CFA04FE0EEA050C214DDA
:106D3C00A842C9D005F58065A84209D005F5806543
:106D4C00A84207D005F58065A842BBD00425BCE756
:106D5C000125BAE70225B8E7154FB41C57F82450A3
:106D6C0025EA0E0547F82450134C256825EA03053F
:106D7C002560656825EA03056560A56825EA0305B5
:106D8C00A560E56825EA0305E560A2E700F1040EBD
:106D9C00A2F10805AD00A0E7F0BD013231FA02F313
:106DAC0005D0012393400B40F7D0F0B5B1E7704705
:106DBC0000000140000801400004014083681942B2
:106DCC0001D001207047002070470AB10161704763
:106DDC000904016170470000002808DB0901C9B2F1
:106DEC0000F1604000F5614080F80013704700F03E
:106DFC000F000901C9B2014B1954704714ED00E0A2
:106E0C0000B500F00700C0F1070CBCF1040F28BF5F
:106E1C004FF0040C031D062B0FD9C31E4FF0FF3E81
:106E2C000EFA0CF021EA000199400EFA03FE22EA58
:106E3C000E0241EA02005DF804FB0023EEE70000BD
:106E4C00074AD36823F4E0631B041B0C000200F414
:106E5C00E060034343F0BF6343F40033D3607047F7
:106E6C0000ED00E010B50446054BD868C0F30220D5
:106E7C00FFF7C6FF01462046FFF7AEFF10BD00BF6F
:106E8C0000ED00E00138B0F1807F0BD24FF0E02331
:106E9C005861054AF02182F82310002098610722DE
:106EAC001A6170470120704700ED00E0044B00228E
:106EBC00DA61044A136943F00103136101807047DE
:106ECC00A805002000200240194BDB6813F01003CA
:106EDC0005D0184AD36943F00203D3611023144A36
:106EEC00D26812F0040F06D01249CA6942F00102AE
:106EFC00CA6143F004030E4AD26912F0010F09D0A3
:106F0C000C49CA6942F00402CA610949CA6922F0F3
:106F1C000102CA6140F20112934202D0044AD360CA
:106F2C007047034AD36923F00103D361704700BF54
:106F3C0000200240A80500200A4B1B6913F0800FAB
:106F4C000BD0084B084A5A6002F188325A601B6910
:106F5C0013F0800F03D100207047002070470120F0
:106F6C00704700BF0020024023016745034A1369A4
:106F7C0043F0800313610020704700BF00200240E3
:106F8C0038B50446FFF7B4F90546164BDB6813F029
:106F9C00010F0AD0B4F1FF3FF7D024B1FFF7A8F9E5
:106FAC00401BA042F1D903201BE00E4BDB6813F011
:106FBC00200F02D00B4B2022DA600A4BDB6813F057
:106FCC00100F0BD1074BDB6913F0010F06D1054BEA
:106FDC00DB6813F0040F01D1002002E0FFF774FF0F
:106FEC00012038BD002002402DE9F8431E46244BF9
:106FFC001B7E012B41D004460F469046204B0122AC
:10700C001A764CF25030FFF7BBFF034678BB012CCD
:10701C0008D0022C03D04FF004091C4607E04FF0B7
:10702C000209FAE74FF00109F7E70134E4B24C45E5
:10703C001DD22101C1F12002A1F1200328FA01F196
:10704C0006FA02F2114326FA03F3194389B207EB4D
:10705C004400FFF72BFF4CF25030FFF791FF094B28
:10706C001D6925F001051D6103460028DDD0044A89
:10707C00002111761846BDE8F8830223FAE700BF19
:10708C00A805002000200240064B0022DA61064BC6
:10709C001A6942F004021A611A6942F040021A613C
:1070AC00704700BFA805002000200240064B0022BC
:1070BC00DA61064B1A6942F002021A6158611A69C8
:1070CC0042F040021A617047A805002000200240DF
:1070DC00264B1B7E012B46D070B505460E46234B26
:1070EC0001221A760368022B20D04CF25030FFF7A5
:1070FC0047FF90BB4FF0FF333360AC680121EA6867
:10710C00AB6803EB8223A34228D92046FFF7CEFFBE
:10711C004CF25030FFF734FF154A136923F0020389
:10712C0013610146B8B904F58064E8E74CF25030BD
:10713C00FFF726FF08B1012110E00120FFF7A4FFA3
:10714C004CF25030FFF71CFF0146094A136923F03B
:10715C000403136102E0346000E00121034B0022C0
:10716C001A76084670BD022108467047A805002013
:10717C000020024010B504460268136923F4405302
:10718C00C1680B43136183680269134342691A4354
:10719C000168CB6823F4B05323F00C031343CB608A
:1071AC000268536923F4407381690B43536102688D
:1071BC00134B9A4220D0FFF7CDFB024602EB820222
:1071CC0002EB820263689B00B2FBF3F20D48A0FB5A
:1071DC0002314909642303FB11231B013233A0FB49
:1071EC0003035B0903F0F00202EB011203F00F033F
:1071FC00216813448B6010BDFFF7BCFB0246DDE732
:10720C00003801401F85EB5158B310B5044690F877
:10721C003D300BB3242384F83D302268D36823F42B
:10722C000053D3602046FFF7A5FF2268136923F4AF
:10723C00904313612268536923F02A035361226837
:10724C00D36843F40053D36000202064202384F8D7
:10725C003D3084F83E3010BD80F83C30FEF720FF06
:10726C00D8E701207047A8B110B50446242380F854
:10727C003D300268D36823F40053D360FEF7B2FFAD
:10728C000020206484F83D0084F83E00206384F8DC
:10729C003C0010BD012070470C480D490D4A0023DD
:1072AC0002E0D458C4500433C4188C42F9D30A4AAF
:1072BC000A4C002301E013600432A242FBD3FEF718
:1072CC00CBFF00F08BF8FDF74BF970470000002066
:1072DC00100000203C7800081000002060070020FF
:1072EC00FEE70000032A30B412D941EA0004A407D7
:1072FC0084460B4621D11946604653F8044B5CF882
:10730C00045BA54219D1043A032AF4D86046194605
:10731C00541E7AB1431E0139021901E09A4209D078
:10732C0013F8010F11F801CF6045F7D0A0EB0C005A
:10733C0030BC7047002030BC7047541EEAE700BFD9
:10734C00830730B546D08446841805E0634603F8BD
:10735C00011B9D0703D09C46A445F7D130BD013AD3
:10736C000244A2EB0C02032A29D9CCB204EB04246C
:10737C000F2A04EB04442FD9A2F1100C2CF00F0CA3
:10738C0003F11005AC44C3E90044C3E902441033D3
:10739C006345F8D112F00C0F02F00F0E18D01A46FC
:1073AC002EF0030C9C44AEF1040542F8044B6245EC
:1073BC00FBD125F0030404330EF003022344002A0E
:1073CC00CCD0C9B21A4403F8011B9342FBD130BD97
:1073DC007246F4E70346C6E79646E0E770B50F4BF6
:1073EC000F4DAB42A3EB050607D00024B61055F8A1
:1073FC00043B01349847A642F9D800F0ADF8094D8A
:10740C00094B5E1BAB424FEAA60606D0002455F88A
:10741C00043B01349847A642F9D870BD3078000877
:10742C00307800083078000838780008704700BFC2
:10743C00704700BF20F0030110F00300C0F1000002
:10744C0051F8043B00F1040C4FEACC0C6FF0000235
:10745C001CBF22FA0CF213434FF0010C4CEA0C2C1B
:10746C004CEA0C4CA3EB0C0222EA030212EACC12FB
:10747C0004BF51F8043B0430F4D0C2F1000102EA1D
:10748C000102B2FA82F2C2F11F0200EBD200704785
:10749C00024B13B1024800F005B870470000000021
:1074AC00BD740008002301461A46184600F014B8B3
:1074BC0038B5074D074C2C1BA41005D0013C55F8D2
:1074CC00043D9847002CF9D1BDE8384000F04AB88B
:1074DC003C780008387800082DE9F8431B4D064627
:1074EC00286898460F469146FFF7A0FF184B1C687A
:1074FC001CB3286865681F2D22DC4EB96B1C023545
:10750C00636044F82570FFF793FF0020BDE8F88313
:10751C00012304EB8501C1F88890D4F88821AB4095
:10752C001A43022EC4F88821C1F80881E6D1D4F898
:10753C008C211A43C4F88C21E0E7064C1C60D8E778
:10754C00FFF776FF4FF0FF30E0E700BF0C000020A4
:10755C00CC050020D0050020F8B500BFF8BC08BC55
:10756C009E467047F8B500BFF8BC08BC9E467047F5
:10757C00C1C1C10045323820575249544520434FB0
:10758C004E464947204641494C45440D0A000000EF
:10759C0045323820575249544520434F4E464947AF
:1075AC00204F4B0D0A000000453238205341564500
:1075BC002053454E540D0A00453238205245534550
:1075CC00542053454E540D0A000000004D415354B5
:1075DC0045520000534C415645000000310000005C
:1075EC003000000043464720524F4C453D00000000
:1075FC002049443D000000002052454D4F54453D6C
:10760C00000000002043483D00000000204F505473
:10761C00494F4E3D000000002046494C5445523D18
:10762C00000000002041434B3D0000002045323853
:10763C003D0000000D0A00004558495420434647C0
:10764C00204D4F44450D0A0045323820434F4E46DD
:10765C0049475552494E472E2E2E0D0A0000000068
:10766C0045323820434F4E464947204641494C4508
:10767C00443A204241554452415445204E4F5420E7
:10768C00464F554E440D0A0045323820434F4E4666
:10769C004947204F4B0D0A0045323820434F4E4688
:1076AC004947204641494C45443A205645524946A3
:1076BC0059204641494C45440D0A0000524F4C4557
:1076CC003D4D415354455200524F4C453D534C4156
:1076DC00564500004F4B0D0A0000000049440000C5
:1076EC004552522049445F52414E47450D0A000015
:1076FC0052454D4F544500004552522052454D4F76
:10770C0054455F52414E47450D0A00004348000066
:10771C004552522043485F52414E47450D0A0000E6
:10772C004F5054494F4E0000455252204F5054492F
:10773C004F4E5F52414E47450D0A000046494C548E
:10774C00455200004552522046494C5445525F5216
:10775C00414E47450D0A000041434B004552522013
:10776C0041434B5F52414E47450D0A004552522052
:10777C004B45590D0A0000005341564500000000CE
:10778C004F4B2053415645442C205245424F4F54A9
:10779C00494E472E2E2E0D0A00000000444546414E
:1077AC00554C540045525220434D440D0A000000E4
:1077BC004F4B20434647204D4F44450D0A000000D7
:1077CC002B2B2B0002030405060708090A0B0C0DD2
:1077DC000E0F1010000000003031323334353637C4
:1077EC0038394142434445460000000043464700B7
:1077FC0030313233343536373839414243444546DB
:10780C000000000000000000010203040000000062
:0C781C0000000000010203040607080938
:08782800E4C8FF7F010000002D
:087830009D74000831430008BB
:0478380009430008F8
:10783C0000127A000100000010000000C8050020B2
:020000040801F1
:04FC0000FFFFFFFF04
:04000005080072A5D8
:00000001FF
