:020000040800F2
:104000000050002061660008F5520008F7520008D1
:10401000F9520008FB520008FD52000800000000A1
:10402000000000000000000000000000FF52000837
:104030000153000800000000035300080553000866
:10404000A9660008A9660008A9660008A966000814
:10405000A9660008A9660008A9660008A966000804
:10406000A9660008A9660008A9660008A9660008F4
:10407000A9660008A9660008A9660008A9660008E4
:10408000A9660008A9660008A9660008A9660008D4
:10409000A9660008A9660008A9660008A9660008C4
:1040A000A9660008A9660008A9660008A9660008B4
:1040B000A9660008A9660008A9660008A9660008A4
:1040C000A9660008A9660008A9660008A966000894
:1040D000A9660008A9660008A9660008A966000884
:1040E000A9660008A9660008A9660008000000008B
:1040F00000000000000000000000000000000000C0
:0C41000000000000000000005FF808F163
:10410C000348044B834202D0034B03B1184770475A
:10411C001000002010000020000000000548064B95
:10412C001B1AD90F01EBA301491002D0034B03B1A9
:10413C0018477047100000201000002000000000FD
:10414C0010B5064C237843B9FFF7DAFF044B13B1D3
:10415C000448AFF300800123237010BD1000002031
:10416C0000000000C468000808B5054B1BB10549E8
:10417C000548AFF30080BDE80840FFF7CFBF00BF94
:10418C000000000014000020C4680008124A536AA2
:10419C0043F001035362104B5B6A13F0020FFAD029
:1041AC000E4B45F255521A600C4BDB6813F0010FA5
:1041BC00FAD10A4B04225A60084BDB6813F0020F49
:1041CC00FAD1064B40F2E1429A604AF6AA221A60F2
:1041DC004CF6CC421A607047001002400030004090
:1041EC00024B4AF6AA221A60704700BF003000400A
:1041FC002DE9F04788B004AD00240494059406948E
:10420C000794384B9A6942F010029A619A6902F04D
:10421C0010020092009A9A6942F020029A619A69FF
:10422C0002F020020192019A9A6942F004029A610A
:10423C009A6902F004020292029A9A6942F0080208
:10424C009A619B6903F008030393039BDFF898A022
:10425C0001224FF40051504601F0F5FE234F224647
:10426C004FF48041384601F0EEFE22464FF40041F7
:10427C00384601F0E8FE1E4E22464FF4807130465F
:10428C0001F0E1FE4FF4005304934FF00109CDF817
:10429C00149006944FF00208CDF81C802946504625
:1042AC0001F042FD4FF440430493CDF81490069472
:1042BC00CDF81C802946384601F036FD4FF480734A
:1042CC0004932946304601F02FFD4FF4006304930C
:1042DC00059406942946304601F026FD08B0BDE849
:1042EC00F08700BF0010024000100140000C01409C
:1042FC000008014072B6FEE708B50A480A4B036095
:10430C004FF4E133436000238360C36003610C22EC
:10431C0042618361C36102F0E9F800B908BDFFF79F
:10432C00E9FF00BFB40000200038014008B50A487E
:10433C000A4B03604FF4E133436000238360C36096
:10434C0003610C2242618361C36102F0CFF800B9B2
:10435C0008BDFFF7CFFF00BF7000002000440040F5
:10436C0008B50A480A4B03604FF4E133436000235D
:10437C008360C36003610C2242618361C36102F0FC
:10438C00B5F800B908BDFFF7B5FF00BF2C00002041
:10439C000048004008B500F073FF00B908BDFFF7F6
:1043AC00A9FF000000B58FB001F0D6F8FFF718FF99
:1043BC00FFF7F0FFFFF714FFFFF71AFFFFF710FFEF
:1043CC00FFF79AFFFFF70CFFFFF7B0FFFFF708FFAF
:1043DC00FFF7C6FFFFF704FF184B0193184B02932E
:1043EC00184B0393184B04934FF40053ADF814304F
:1043FC00164B06934FF48042ADF81C2008934FF4F3
:10440C000043ADF8243003F1804303F508430A93CD
:10441C004FF48072ADF82C200C934FF40063ADF880
:10442C00343001A800F0B0FEFFF7B0FEFFF7D8FE65
:10443C0000F0E2FEFFF7D4FEFAE700BFB400002064
:10444C00700000202C00002000100140000C0140E6
:10445C0080B101680B4A91420ED14268012A0DD1FC
:10446C008268022A0CD1C0680138FD288CBF00205C
:10447C0001207047002070470020704700207047D3
:10448C00002070474346473208B50548FFF7E0FF68
:10449C0020B1034B1A7B034B83F8E02308BD00BF0C
:1044AC0000FC010820010020014B93F8E003704749
:1044BC002001002038B505460C46FFF7F5FF2570A6
:1044CC00C0F307236370A0702823E37018232371B3
:1044DC000423637138BD0000014B93F8E00370476F
:1044EC002001002010B5FFF7F7FF040484F06044AE
:1044FC0084F40004FFF7D8FF604080F4C55080F0CE
:10450C00040010BD10B50C48FFF7A2FF88B10A4B90
:10451C00DC68FFF7E1FF844201D000200AE0064B83
:10452C001C69FFF7DFFF844201D0002002E001206C
:10453C0000E0002010BD00BF00FC01080C4BB3F8DC
:10454C00441305290FD900238A1F92B29A4208D32B
:10455C00074A1A4492F84420C02A06D001339BB271
:10456C00F2E700207047002070470120704700BF21
:10457C00200100208C46B9B1831D9BB20D4AB2F8C4
:10458C004423934212D80023052B0BD8C118094A97
:10459C000A4492F844101CF80320914208D10133CC
:1045AC00DBB2F1E701207047002070470020704714
:1045BC000020704720010020114BB3F84433052B29
:1045CC0002D800231846704710B582B06946C02047
:1045DC00FFF770FF00240A4BB3F84433063B9BB241
:1045EC00A34208D369462046FFF7C4FF034618B917
:1045FC000134A4B2EFE70023184602B010BD00BF8F
:10460C0020010020024B4AF6AA221A60704700BF14
:10461C00003000400023174AB2F802249A420CD909
:10462C00022B0AD8134A1A4492F8E113124AD25CAC
:10463C00914216D101339BB2EDE7032A13D90D4BEE
:10464C0093F8E433202B08D80A2B0ED30A3BDBB2A9
:10465C000A48D84000F0010070473F2B07D10120D9
:10466C0070470020704701207047002070470020E1
:10467C00704700BF20010020C069000809004000FD
:10468C0000284ED08446042301E001339BB22D4A0E
:10469C00B2F80214994204D91A4492F8E123202A60
:1046AC00F3D0981C88423ED2264A1A4492F8E12351
:1046BC00492A3AD110B55C1C224A224492F8E123D3
:1046CC00442A34D11F4A024492F8E123202A30D1E3
:1046DC0003339BB20020024699421DD903F1010E0F
:1046EC001FFA8EFE174C234493F8E1330D2B13D095
:1046FC000A2B11D0A3F13000C0B209281BD802EB51
:10470C008202520092B213449BB2303B9AB2012007
:10471C00FE2A12D87346DFE750B182B18CF8002024
:10472C0006E00020704700207047002070470020F2
:10473C0010BD0020FCE70020FAE70020F8E700207D
:10474C00F6E700BF2001002020B10022A0F8442091
:10475C00A0F84620704710B50446FFF7BDFEA042F6
:10476C0005D0FF2C01D0002010BD0120FCE701205A
:10477C00FAE7844658B10020034605E01CF80320F4
:10478C001044C0B201339BB28B42F7D37047002068
:10479C007047C0B138B50546062916D90378A52B44
:1047AC0015D14278131FDBB23C2B12D80332914245
:1047BC0011D14C1EA1B2FFF7DCFF2B5D834214BF5D
:1047CC000020012002E000207047002038BD0020AE
:1047DC00FCE70020FAE70020F8E70000034628B3C6
:1047EC0031B30268106810F0200F23D052680A70A1
:1047FC001B68114A934207D0104A93420AD0104AC0
:10480C0093420DD0012070470E4A13680133136098
:10481C00012070470C4A1368013313600120704764
:10482C000A4A136801331360012070470020704757
:10483C0000207047002070470038014000440040C1
:10484C00004800401C010020140100200C01002035
:10485C0000B583B00DF10701044B1868FFF7BEFFDC
:10486C000028F7D103B05DF804FB00BF2001002045
:10487C0070B504460E4600F08DFE05464CB123681B
:10488C001A6812F0800F05D100F084FE431B092B2F
:10489C00F5D970BD5E6023680B4A93420AD00B4A6F
:1048AC0093420CD00A4A9342F3D10A4A136801335B
:1048BC001360EEE7084A136801331360E9E7074A0F
:1048CC00136801331360E4E70038014000440040F2
:1048DC0000480040080100201801002010010020B1
:1048EC0078B1F8B50D461646074649B1002405E0E7
:1048FC00295D3846FFF7BCFF0134A4B2B442F7D3AC
:10490C00F8BD704708B50A460146024B1868FFF718
:10491C00E7FF08BD2001002030B583B005460C46EA
:10492C00A5238DF8003005238DF8013001238DF877
:10493C000230FFF7D1FD8DF803008DF8045044F0E0
:10494C0080048DF8054000238DF806300721684659
:10495C00FFF70FFF8DF8070008216846FFF7D2FF1D
:10496C00024A13680133136003B030BDF800002015
:10497C0028B170B582B00D460646002412E070478F
:10498C000D228DF80620AB421FD000228DF8072097
:10499C00114A5068AB421AD0032201A9FFF7A0FFBD
:1049AC000134A4B2AC4214D2335D1B090B4AD35C64
:1049BC008DF80430335D03F00F03D35C8DF80530B4
:1049CC00631CAB42DCD02022DBE70A22DEE70422A8
:1049DC00E3E702B070BD00BF20010020C4690008ED
:1049EC0000B583B0020B0E4B9A5C8DF80420C0F31B
:1049FC0003229A5C8DF80520C0F303129A5C8DF8A3
:104A0C00062000F00F001B5C8DF8073004220DEB24
:104A1C000201044B5868FFF763FF03B05DF804FB19
:104A2C00AC690008200100202DE9F04704460E4631
:104A3C001546FFF7AEFE80B1A77894F8049094F871
:104A4C0005A094F905806DB13846FFF784FE58B97E
:104A5C00104A13680133136004E01DB10D4A13684A
:104A6C0001331360BDE8F0870B4A13680133136000
:104A7C0032462146094B5868FFF732FFFFF72CFDF1
:104A8C00B842EFD1B8F1000FECDB51464846FFF7C6
:104A9C0043FFE7E7FC00002000010020200100207C
:104AAC00002848D038B515460446B0F844307BB9D8
:104ABC00A52905D0D2B1204A13680133136015E043
:104ACC005A1CA0F84420C1540023A0F846300DE035
:104ADC00581C80B2A4F84400E154022807D0B4F862
:104AEC00461009B1884214D242281AD838BD0B1F7F
:104AFC00DBB23C2B03D80331A4F84610EFE7204679
:104B0C00FFF722FE002DF1D00B4A1368013313601E
:104B1C00ECE72A462046FFF787FF2046FFF714FEF6
:104B2C00E4E72046FFF710FE002DDFD0024A1368A1
:104B3C0001331360DAE77047FC0000200D4B1B6853
:104B4C00BBB10C4B5B6813B100B583B006E070478A
:104B5C0001229DF807100848FFF7A2FF0DF107018D
:104B6C00044B1868FFF73AFE0028F1D103B05DF84A
:104B7C0004FB704720010020AE04002038B5044629
:104B8C00054D01462868FFF773FE0022214605F209
:104B9C004630FFF785FF38BD2001002010B50024FA
:104BAC0007E0094B234493F8E103FFF7E7FF0134D7
:104BBC00A4B2054BB3F80234A342F2D8024B002244
:104BCC00A3F8022410BD00BF2001002070B582B0F4
:104BDC0006460C4600F0DEFC0546174B0022A3F8F7
:104BEC00442300F0D7FC401BB04222D2FFF70AFD51
:104BFC0000E0BCB90DF107010F4B1868FFF7EEFD93
:104C0C000028EED00C4BB3F84433B3F5407FF0D210
:104C1C00094AD1189DF8070081F844000133A2F825
:104C2C004433E6E79DF80710034B5868FFF720FE66
:104C3C00E0E702B070BD00BF2001002030B583B0AA
:104C4C0004466946C020FFF735FC06216846FFF78D
:104C5C0059FE00214FF41670FFF7B8FFFFF7ACFCBC
:104C6C00054610B9284603B030BD002CFAD00348D5
:104C7C00B0F844134430FFF77BFEF3E7200100202B
:104C8C0030B583B00446104B1B68ADF804301B0CD8
:104C9C008DF80630032101A8FFF734FE002140F601
:104CAC009800FFF793FFFFF749FC054610B928461B
:104CBC0003B030BD002CFAD00448B0F84413443093
:104CCC00FFF756FEF3E700BFDC6800082001002068
:104CDC0010B500F05FFC044600F05CFC001BB0F566
:104CEC007A7F0AD2FFF78EFC044BD86A0028F3D0E7
:104CFC00198E01F0A1F90128EED110BD2001002080
:104D0C0010B5094C0022218B606901F09CF900223E
:104D1C00218CE06901F097F90122218D606A01F084
:104D2C0092F9FFF7D5FF10BD2001002010B5094CFA
:104D3C000122218B606901F086F90122218CE06946
:104D4C0001F081F90122218D606A01F07CF9FFF7F5
:104D5C00BFFF10BD2001002030B58BB004460023EE
:104D6C0005931C4B00930123019302230293FFF73D
:104D7C00B3FB03909CB94FF0FF33049301F01AFA84
:104D8C0000230693144B08930123099305A906A845
:104D9C0001F0DCFA58B101F027FA0BB030BDFFF787
:104DAC00A1FB0490FFF7AEFB0028E7D0F5E7002449
:104DBC00094D042CEFD80AAB03EB840353F8282CD1
:104DCC0000232946022001F04DFA0028E3D10435D6
:104DDC000134EEE74346473200FC010808B50120D8
:104DEC00FFF7BAFF08BD90B138B50C4605464368CD
:104DFC008B420ED001F0A9FB08B100200AE06C60D8
:104E0C00284601F073FBB0FA80F0400902E0002064
:104E1C007047012038BD000038B505460C46FFF739
:104E2C0085FF2946074B1868FFF7DDFFFFF710FDDC
:104E3C0000214FF49660FFF7C9FE2046FFF720FFD4
:104E4C0038BD00BF2001002090B170B50D4606465C
:104E5C0000240CB1002070BD29464FF41650FFF70A
:104E6C00DBFF08B90134F4E74FF416533360F2E773
:104E7C000020704710B582B04FF416530193234BAA
:104E8C001B68002B40D0FFF73DFB044610B12046B9
:104E9C0002B010BD1E4A136801331360012140F6A5
:104EAC00B830FFF793FE012101A8FFF7CDFF0446B0
:104EBC0068B10120FFF7E4FE044688B94FF4E131F4
:104ECC00124B1868FFF78FFFFFF71AFFDFE74FF45D
:104EDC00E1310E4B1868FFF786FFFFF711FFD6E79D
:104EEC000120FFF7ABFE04460028E7D00120FFF7B6
:104EFC00C7FE04460028E1D0FFF75EFB04460028FD
:104F0C00DCD0FFF76BFFD9E70124C0E720010020BC
:104F1C000401002030B595B00EAC1D4D0FCD0FC463
:104F2C0095E8030044F8040B21700DF1180C194C92
:104F3C000FCCACE80F0094E80F00ACE807002CF89D
:104F4C00023B1B0C8CF800306C46134D0FCD0FC47C
:104F5C0095E8030044F8040B2180104B186820B12D
:104F6C000A2314220EA901F009FB0C4B586820B13E
:104F7C000A231E2206A901F001FB084B986820B1F8
:104F8C000A231522694601F0F9FA15B030BD00BFAD
:104F9C00E0680008F8680008186900082001002083
:104FAC0050B110B5044601F0F5FB82B22146034B1B
:104FBC005868FFF795FC10BD704700BF200100201A
:104FCC0000B583B000238DF80730374BB3F80234AB
:104FDC00032B37D9344BD3F8E03323F0FF03334A98
:104FEC0093422FD1304B93F8E433202B28D80A2B43
:104FFC0028D3A3F10A01C9B22D4ACA4012F0010FFD
:10500C0020D03F2B03D00D2B01D00A2B1FD12948C8
:10501C00FFF7C6FF2848FFF7C3FFFFF75DFAFFF75E
:10502C00DFFC2648FFF7BCFFFFF73EFAFFF7D8FC82
:10503C002348FFF7B5FF1C4B0022A3F8022403E022
:10504C003F2BDED0FFF7AAFD03B05DF804FB0DF19A
:10505C000700FFF715FB18B3134B93F8E0239DF8EB
:10506C0007309A4214D0104A82F8E0330020FFF740
:10507C0073FEFFF7FFFE78B11248FFF791FF0A4B62
:10508C0093F8E003FFF7ACFC0D48FFF789FFD2E77C
:10509C000D48FFF785FFCEE70C48FFF781FFCAE705
:1050AC000B48FFF77DFFC6E7200100200043464771
:1050BC0009004000306900083C6900084869000894
:1050CC00506900086869000854690008786900088C
:1050DC008C69000870B50446194BB3F802346BB9EF
:1050EC00432802D00025284670BD154A591CA2F849
:1050FC0002141A4482F8E1030125F4E71F2B16D899
:10510C005E1CB6B20E4AA2F802641A4482F8E1039D
:10511C00FFF780FA054670B10D2C05D00A2C03D090
:10512C00042EE0D13F2CDED1FFF74AFFDBE7FFF77F
:10513C0035FD0025D7E7FFF731FD0125D3E700BF8B
:10514C00200100200F4B5B68D3B10E4B1B689BB149
:10515C0000B583B00DF107010A4B5868FFF73EFB11
:10516C0058B19DF80700FFF7B5FF0028F2D19DF864
:10517C000700FFF703FDEDE7704703B05DF804FB94
:10518C00704700BF20010020F0B583B00446194DD4
:10519C0040F204420021284601F082FAAE46A446B1
:1051AC00BCE80F00AEE80F00BCE80F00AEE80F0043
:1051BC00BCE80F00AEE80F00DCF80030CEF8003091
:1051CC00012485F8E043FFF75FF9EE682F8A00F0C1
:1051DC00E1F90190009400233A46314605F1340080
:1051EC0000F02EF8FFF78CFDFFF744FEFFF792FE60
:1051FC0003B0F0BD2001002010B500F0CBF904463F
:10520C00FFF7A0FFFFF79AFC23464FF4FA72012137
:10521C00014800F023F810BD5401002008B501230B
:10522C00037382798188006800F00DFF08BD08B512
:10523C0000230373C2798188006800F004FF08BD65
:10524C0008B50160828083719DF80830C371039B9F
:10525C00836000230373FFF7EAFF08BD08B549B16B
:10526C008168591A914204D38360037B2BB1FFF7F9
:10527C00DEFF08BDFFF7DBFFFBE7FFF7CFFFF8E72B
:10528C0010B594B00AAC28220021204601F008FA8F
:10529C0000230593069307930893099301930293B4
:1052AC000393049301230A934FF480330B9320460A
:1052BC0000F08CF910B1012014B010BD0F23059330
:1052CC0001230693002107910891099105A800F08C
:1052DC00C3FB08B10120EFE70223019300230393E2
:1052EC0001A800F095FCE7E77047FEE7FEE7FEE754
:1052FC00FEE770477047704708B500F03FF908BDEE
:10530C0082B00E4B9A6942F001029A619A6902F0DE
:10531C0001020092009ADA6942F08052DA61DB698C
:10532C0003F080530193019B054A536823F0E0631B
:10533C0043F00073536002B0704700BF001002408E
:10534C000000014030B58BB00023069307930893FF
:10535C0009930368464A934207D0464A934230D099
:10536C00454A934257D00BB030BD444B9A6942F436
:10537C0080429A619A6902F480420092009A9A697A
:10538C0042F004029A619B6903F004030193019BB0
:10539C004FF400730693022307930323099306AD7E
:1053AC00374C2946204600F0BFFC4FF4806306932F
:1053BC0000230793012308932946204600F0B4FCF0
:1053CC00D1E72E4BDA6942F40032DA61DA6902F481
:1053DC0000320292029A9A6942F004029A619B6925
:1053EC0003F004030393039B042306930223079304
:1053FC000323099306AD224C2946204600F094FC69
:10540C00082306930023079301230893294620467B
:10541C0000F08AFCA7E7194BDA6942F48022DA61C2
:10542C00DA6902F480220492049A9A6942F0080222
:10543C009A619B6903F008030593059B4FF4806305
:10544C000693022307930323099306AD0D4C2946BB
:10545C00204600F069FC4FF4006306930023079389
:10546C00012308932946204600F05EFC7BE700BF31
:10547C000038014000440040004800400010024049
:10548C0000080140000C014008B50368164A93421D
:10549C0006D0164A93420FD0154A934217D008BD36
:1054AC0002F55842936923F4804393614FF4C06131
:1054BC00104800F043FDF2E702F5E632D36923F41D
:1054CC000033D3610C210B4800F038FDE7E702F5FF
:1054DC00E432D36923F48023D3614FF4406106484E
:1054EC0000F02CFDDBE700BF003801400044004019
:1054FC000048004000080140000C0140014B024AEA
:10550C009A60704700ED00E00040000810B50446BA
:10551C000E4B1A784FF47A73B3FBF2F30C4A106803
:10552C00B0FBF3F000F0ECFD68B90F2C01D90120B1
:10553C000AE0002221464FF0FF3000F0D1FD054B70
:10554C001C60002000E0012010BD00BF0400002002
:10555C00000000200800002008B5074A136843F03B
:10556C0010031360032000F0A9FD0020FFF7CEFF0D
:10557C00FFF7C6FE002008BD00200240034A116858
:10558C00034B1B780B441360704700BF24050020AD
:10559C0004000020014B1868704700BF2405002050
:1055AC0082B0084B1B68084AA2FB03235B0A00FB72
:1055BC0003F3019300BF019B5A1E0192002BF9D1FA
:1055CC0002B0704700000020D34D6210002800F09C
:1055DC00F18170B582B00446036813F0010F2CD032
:1055EC00994B5B6803F00C03042B1DD0964B5B6846
:1055FC0003F00C03082B12D06368B3F5803F41D045
:10560C00002B55D103F1804303F504331A6822F4BF
:10561C0080321A601A6822F480221A6037E08A4BB2
:10562C005B6813F4803FE7D0874B1B6813F4003F93
:10563C0003D06368002B00F0BF81236813F0020FC6
:10564C0075D0814B5B6813F00C0F5FD07E4B5B68A1
:10565C0003F00C03082B54D02369002B00F08A8034
:10566C007A4B01221A60FFF795FF0546764B1B68B3
:10567C0013F0020F75D1FFF78DFF401B0228F5D9EF
:10568C0003209EE1704A136843F48033136063680F
:10569C0043B3FFF77FFF05466B4B1B6813F4003FCA
:1056AC00CBD1FFF777FF401B6428F5D9032088E1A5
:1056BC00B3F5A02F09D0644B1A6822F480321A601B
:1056CC001A6822F480221A60E1E703F18043A3F503
:1056DC003C331A6842F480221A601A6842F4803211
:1056EC001A60D4E7FFF756FF0546574B1B6813F4B7
:1056FC00003FA2D0FFF74EFF401B6428F5D90320D2
:10570C005FE1514B5B6813F4803FA5D14E4B1B6896
:10571C0013F0020F03D02369012B40F04F814A4A4A
:10572C00136823F0F803616943EAC103136023682B
:10573C0013F0080F33D0A369002B5CD0434B01222C
:10574C00C3F88024FFF726FF05463F4B5B6A13F036
:10575C00020F21D1FFF71EFF401B0228F5D90320B1
:10576C002FE1394A136823F0F803616943EAC10356
:10577C001360DCE7354B00221A60FFF70BFF054680
:10578C00314B1B6813F0020FD1D0FFF703FF401B06
:10579C000228F5D9032014E10120FFF701FF23684B
:1057AC0013F0040F00F09680274BDB6913F0805F39
:1057BC0034D1254BDA6942F08052DA61DB6903F0AF
:1057CC0080530193019B0125214B1B6813F4807FAF
:1057DC0026D0E368012B3DD0002B53D103F180433D
:1057EC0003F504331A6A22F001021A621A6A22F0D3
:1057FC0004021A6233E0154B0022C3F88024FFF731
:10580C00C9FE0546104B5B6A13F0020FC7D0FFF7B9
:10581C00C1FE401B0228F5D90320D2E00025D3E7B6
:10582C000B4A136843F480731360FFF7B3FE06460C
:10583C00074B1B6813F4807FCBD1FFF7ABFE801BAB
:10584C006428F5D90320BCE000100240000042425D
:10585C00007000405F4A136A43F001031362E3686F
:10586C0033B3FFF797FE06465A4B1B6A13F0020F31
:10587C002FD1FFF78FFE801B41F288339842F3D96A
:10588C0003209EE0052B09D0524B1A6A22F001022C
:10589C001A621A6A22F004021A62E0E74D4B1A6A85
:1058AC0042F004021A621A6A42F001021A62D6E746
:1058BC00FFF770FE0646474B1B6A13F0020F08D029
:1058CC00FFF768FE801B41F288339842F3D903201E
:1058DC0077E0E5B9E369002B72D03E4A526802F0DA
:1058EC000C02082A56D0022B17D03B4B00221A660A
:1058FC00FFF750FE0446374B1B6813F0007F47D070
:10590C00FFF748FE001B0228F5D9032059E0314A65
:10591C00D36923F08053D361DCE72F4B00221A6646
:10592C00FFF738FE05462B4B1B6813F0007F06D0A3
:10593C00FFF730FE401B0228F5D9032041E0236A13
:10594C00B3F5803F1AD023494B6823F47413226AB1
:10595C00606A024313434B601F4B01221A66FFF728
:10596C0019FE04461B4B1B6813F0007F0ED1FFF78A
:10597C0011FE001B0228F5D9032022E0154A5368BA
:10598C0023F40033A1680B435360DCE7002018E0DC
:10599C00002016E0012B16D00E4B5B6803F480310F
:1059AC00226A914211D103F47013626A93420ED1B0
:1059BC00002006E001207047012002E0012000E0F9
:1059CC00002002B070BD0120FBE70120F9E70120A7
:1059DC00F7E700BF001002400000424286B0194BAE
:1059EC000FCB0DF1180C0CE90F0040F20123ADF8B0
:1059FC000430154B5B6803F00C02042A1CD0082AF7
:105A0C001DD1C3F3834218326A4412F8100C13F4FC
:105A1C00803F0DD00C4B5B68C3F3404318336B4491
:105A2C0013F8143C094A02FB00F0B0FBF3F004E05D
:105A3C00074B03FB00F000E0044806B07047054834
:105A4C00FBE700BF9869000800100240001BB7007C
:105A5C0000093D0000127A00002800F0A08070B50B
:105A6C000D460446524B1B6803F007038B420BD2C6
:105A7C004F4A136823F007030B431360136803F0BA
:105A8C0007038B4240F08D80236813F0020F17D070
:105A9C0013F0040F04D0474A536843F4E063536097
:105AAC00236813F0080F04D0424A536843F4605340
:105ABC005360404A536823F0F003A1680B435360D2
:105ACC00236813F0010F31D06368012B20D0022B17
:105ADC0025D0384A126812F0020F64D035494A6852
:105AEC0022F0030213434B60FFF754FD0646314B83
:105AFC005B6803F00C036268B3EB820F16D0FFF700
:105B0C0049FD801B41F288339842F0D9032045E0CF
:105B1C00284A126812F4003FE0D101203EE0254AE9
:105B2C00126812F0007FD9D1012037E0204B1B689E
:105B3C0003F00703AB420AD91D4A136823F007038D
:105B4C002B431360136803F00703AB422DD123687A
:105B5C0013F0040F06D0174A536823F4E063E1688E
:105B6C000B435360236813F0080F07D0114A536896
:105B7C0023F46053216943EAC1035360FFF72EFFFE
:105B8C000C4B5B68C3F303130B4AD35CD8400B4B31
:105B9C0018600B4B1868FFF7B9FC002070BD012092
:105BAC0070470120FAE70120F8E70120F6E700BF73
:105BBC000020024000100240E069000800000020B4
:105BCC0008000020014B1868704700BF000000203F
:105BDC0008B5FFF7F7FF044B5B68C3F30223034AD6
:105BEC00D35CD84008BD00BF00100240D869000843
:105BFC0008B5FFF7E7FF044B5B68C3F3C223034A06
:105C0C00D35CD84008BD00BF00100240D869000822
:105C1C0070B582B00446036813F0010F36D03F4BC9
:105C2C00DB6913F0805F4AD13C4BDA6942F0805259
:105C3C00DA61DB6903F080530193019B0125384B3A
:105C4C001B6813F4807F3CD0344B1B6A13F44073F5
:105C5C0013D0626802F440729A420ED02F4A136A33
:105C6C0023F440702F490126C1F840640026C1F886
:105C7C004064106213F0010F37D1284A136A23F4E1
:105C8C00407361680B431362002D3FD1236813F0FE
:105C9C00020F06D0214A536823F44043A1680B43FA
:105CAC005360236813F0100F35D01C4A536823F44B
:105CBC008003E1680B435360002002B070BD0025E7
:105CCC00BDE7174A136843F480731360FFF762FC57
:105CDC000646134B1B6813F4807FB5D1FFF75AFCB3
:105CEC00801B6428F5D90320E7E7FFF753FC064631
:105CFC000A4B1B6A13F0020FBFD1FFF74BFC801B42
:105D0C0041F288339842F3D90320D6E7D36923F0C4
:105D1C008053D361BAE70020CFE700BF00100240E8
:105D2C00007000400000424270B582B00024A446CE
:105D3C009EE07C4DAB4214D00CD8A5F58015AB423F
:105D4C000FD005F57025AB420BD0A5F58015AB42F5
:105D5C001FD106E0744DAB4203D005F58035AB4244
:105D6C0017D18B68A3B1012B0DD04261082410E030
:105D7C00CC680EE0CC6804340BE0CC68083408E046
:105D8C00CC680C3405E00261082402E0002400E039
:105D9C000424BEF1FF0F37D806464FEA8C02336855
:105DAC000F25954023EA050304FA02F213433360EE
:105DBC004B6813F0805F59D05C4B9A6942F001023A
:105DCC009A619B6903F001030193019B4FEA9C02CA
:105DDC00951C574B53F825600CF00305AD000F23B1
:105DEC00AB4026EA0306534B984214D003F580636C
:105DFC00984279D003F58063984277D003F580639D
:105E0C00984206D0042307E0061DACF1080292006C
:105E1C00C5E7032300E00023AB4033430232444D7B
:105E2C0045F822304B6813F4803F61D0424A136826
:105E3C0043EA0E0313604B6813F4003F5ED03E4AF6
:105E4C00536843EA0E0353604B6813F4801F5BD016
:105E5C00394A936843EA0E0393604B6813F4001FAE
:105E6C0058D0354AD36843EA0E03D3600CF1010CC9
:105E7C000B6833FA0CF253D0012202FA0CF203EA4B
:105E8C00020E32EA0303F1D14B68122B3FF651AFED
:105E9C00122B3FF67EAF01A555F823F06F5D00087D
:105EAC007D5D0008875D0008995D00089F5D000816
:105EBC009F5D00089F5D00089F5D00089F5D0008C6
:105ECC009F5D00089F5D00089F5D00089F5D0008B6
:105EDC009F5D00089F5D00089F5D00089F5D0008A6
:105EEC00815D00088D5D0008012395E7022393E78F
:105EFC00114A136823EA0E0313609CE70E4A536899
:105F0C0023EA0E0353609FE70B4A936823EA0E03C0
:105F1C009360A2E7084AD36823EA0E03D360A5E78F
:105F2C0002B070BD000022100000311000100240C1
:105F3C0000000140000801400004014000226BE019
:105F4C00032500E0002505FA04F4644542D0FF2B3C
:105F5C005AD886469500DEF800404FF00F0C0CFA2C
:105F6C0005FC24EA0C044FF0040C0CFA05FC44EA82
:105F7C000C04CEF80040C46824EA0303C360013269
:105F8C0031FA02F346D0012393400B40F7D0960828
:105F9C00B51C264C54F8255002F00304A4004FF015
:105FAC000F0C0CFA04FE0EEA050C214DA842C9D0C8
:105FBC0005F58065A84209D005F58065A84207D093
:105FCC0005F58065A842BBD00425BCE70125BAE7DE
:105FDC000225B8E7154FB41C57F8245025EA0E05D6
:105FEC0047F82450134C256825EA0305256065689D
:105FFC0025EA03056560A56825EA0305A560E56843
:10600C0025EA0305E560A2E700F1040EA2F10805FC
:10601C00AD00A0E7F0BD013231FA02F305D0012347
:10602C0093400B40F7D0F0B5B1E77047000001404A
:10603C0000080140000401408368194201D001208E
:10604C007047002070470AB1016170470904016173
:10605C0070470000002808DB0901C9B200F160405C
:10606C0000F5614080F80013704700F00F00090143
:10607C00C9B2014B1954704714ED00E000B500F0A3
:10608C000700C0F1070CBCF1040F28BF4FF0040C43
:10609C00031D062B0FD9C31E4FF0FF3E0EFA0CF05A
:1060AC0021EA000199400EFA03FE22EA0E0241EAAF
:1060BC0002005DF804FB0023EEE70000074AD368FA
:1060CC0023F4E0631B041B0C000200F4E0600343A8
:1060DC0043F0BF6343F40033D360704700ED00E03E
:1060EC0010B50446054BD868C0F30220FFF7C6FF75
:1060FC0001462046FFF7AEFF10BD00BF00ED00E0EB
:10610C000138B0F1807F0BD24FF0E0235861054A83
:10611C00F02182F823100020986107221A61704741
:10612C000120704700ED00E0044B0022DA61044AC4
:10613C00136943F0010313610180704728050020A7
:10614C0000200240194BDB6813F0100305D0184AED
:10615C00D36943F00203D3611023144AD26812F0BE
:10616C00040F06D01249CA6942F00102CA6143F019
:10617C0004030E4AD26912F0010F09D00C49CA6906
:10618C0042F00402CA610949CA6922F00102CA61DB
:10619C0040F20112934202D0044AD3607047034A82
:1061AC00D36923F00103D361704700BF0020024084
:1061BC00280500200A4B1B6913F0800F0BD0084BED
:1061CC00084A5A6002F188325A601B6913F0800F3A
:1061DC0003D100207047002070470120704700BF9A
:1061EC000020024023016745034A136943F08003F2
:1061FC0013610020704700BF0020024038B50446F0
:10620C00FFF7C8F90546164BDB6813F0010F0AD0EF
:10621C00B4F1FF3FF7D024B1FFF7BCF9401BA0420B
:10622C00F1D903201BE00E4BDB6813F0200F02D0DA
:10623C000B4B2022DA600A4BDB6813F0100F0BD1EA
:10624C00074BDB6913F0010F06D1054BDB6813F02C
:10625C00040F01D1002002E0FFF774FF012038BDCC
:10626C00002002402DE9F8431E46244B1B7E012BD7
:10627C0041D004460F469046204B01221A764CF230
:10628C005030FFF7BBFF034678BB012C08D0022C23
:10629C0003D04FF004091C4607E04FF00209FAE75F
:1062AC004FF00109F7E70134E4B24C451DD221014E
:1062BC00C1F12002A1F1200328FA01F106FA02F241
:1062CC00114326FA03F3194389B207EB4400FFF795
:1062DC002BFF4CF25030FFF791FF094B1D6925F055
:1062EC0001051D6103460028DDD0044A002111760A
:1062FC001846BDE8F8830223FAE700BF2805002002
:10630C0000200240064B0022DA61064B1A6942F06B
:10631C0004021A611A6942F040021A61704700BF08
:10632C002805002000200240064B0022DA61064BB3
:10633C001A6942F002021A6158611A6942F040026D
:10634C001A6170472805002000200240264B1B7E56
:10635C00012B46D070B505460E46234B01221A760A
:10636C000368022B20D04CF25030FFF747FF90BB54
:10637C004FF0FF333360AC680121EA68AB6803EB84
:10638C008223A34228D92046FFF7CEFF4CF250308F
:10639C00FFF734FF154A136923F00203136101461A
:1063AC00B8B904F58064E8E74CF25030FFF726FFEB
:1063BC0008B1012110E00120FFF7A4FF4CF250308E
:1063CC00FFF71CFF0146094A136923F0040313610C
:1063DC0002E0346000E00121034B00221A760846EB
:1063EC0070BD02210846704728050020002002409D
:1063FC0010B504460268136923F44053C1680B437B
:10640C00136183680269134342691A430168CB68BC
:10641C0023F4B05323F00C031343CB60026853698D
:10642C0023F4407381690B4353610268134B9A4206
:10643C0020D0FFF7CDFB024602EB820202EB820278
:10644C0063689B00B2FBF3F20D48A0FB02314909D3
:10645C00642303FB11231B013233A0FB03035B09F1
:10646C0003F0F00202EB011203F00F032168134456
:10647C008B6010BDFFF7BCFB0246DDE70038014026
:10648C001F85EB512DE9F84305460F4616469946F4
:10649C00DDF820802B681C6837EA04040CBF01244B
:1064AC000024B4421FD1B8F1FF3FF3D0B8F1000F74
:1064BC0005D0FFF76FF8A0EB09004045EAD92A6830
:1064CC00D36823F4D073D3602A68536923F0010393
:1064DC005361202385F83D3085F83E30002385F844
:1064EC003C30032000E00020BDE8F88358B310B521
:1064FC00044690F83D300BB3242384F83D302268D9
:10650C00D36823F40053D3602046FFF771FF226851
:10651C00136923F4904313612268536923F02A030F
:10652C0053612268D36843F40053D3600020206485
:10653C00202384F83D3084F83E3010BD80F83C3088
:10654C00FEF700FFD8E701207047A8B110B504464C
:10655C00242380F83D300268D36823F40053D360C1
:10656C00FEF792FF0020206484F83D0084F83E0082
:10657C00206384F83C0010BD012070472DE9F041E8
:10658C0082B01E4690F83D30202B54D104460D4667
:10659C009046002953D0002A53D090F83C30012B60
:1065AC0051D0012380F83C3000230364212380F870
:1065BC003D30FEF7EFFF0746A4F82480A4F82680B0
:1065CC00A368B3F5805F05D04FF00008002384F872
:1065DC003C3012E0236913B14FF00008F6E7A846EF
:1065EC000025F3E738F8023B2268C3F30803536035
:1065FC00E28C92B2013A92B2E284E38C9BB273B118
:10660C0000963B46002280212046FFF73BFFE0B975
:10661C00002DE7D015F8012B23685A60E8E70096A7
:10662C003B46002240212046FFF72CFF78B920235F
:10663C0084F83D3000E0022002B0BDE8F08101207A
:10664C00FAE70120F8E70220F6E70320F4E703203D
:10665C00F2E700000C480D490D4A002302E0D45823
:10666C00C4500433C4188C42F9D30A4A0A4C002390
:10667C0001E013600432A242FBD3FEF73FFF00F0AF
:10668C005DF8FDF78FFE7047000000201000002021
:10669C00FC69000810000020E0060020FEE7000066
:1066AC00830730B546D08446841805E0634603F86A
:1066BC00011B9D0703D09C46A445F7D130BD013A80
:1066CC000244A2EB0C02032A29D9CCB204EB042419
:1066DC000F2A04EB04442FD9A2F1100C2CF00F0C50
:1066EC0003F11005AC44C3E90044C3E90244103380
:1066FC006345F8D112F00C0F02F00F0E18D01A46A9
:10670C002EF0030C9C44AEF1040542F8044B624598
:10671C00FBD125F0030404330EF003022344002ABA
:10672C00CCD0C9B21A4403F8011B9342FBD130BD43
:10673C007246F4E70346C6E79646E0E770B50F4BA2
:10674C000F4DAB42A3EB050607D00024B61055F84D
:10675C00043B01349847A642F9D800F0ADF8094D36
:10676C00094B5E1BAB424FEAA60606D0002455F837
:10677C00043B01349847A642F9D870BDF069000873
:10678C00F0690008F0690008F8690008704700BF5C
:10679C00704700BF20F0030110F00300C0F10000AF
:1067AC0051F8043B00F1040C4FEACC0C6FF00002E2
:1067BC001CBF22FA0CF213434FF0010C4CEA0C2CC8
:1067CC004CEA0C4CA3EB0C0222EA030212EACC12A8
:1067DC0004BF51F8043B0430F4D0C2F1000102EACA
:1067EC000102B2FA82F2C2F11F0200EBD200704732
:1067FC00024B13B1024800F005B8704700000000CE
:10680C001D680008002301461A46184600F014B80B
:10681C0038B5074D074C2C1BA41005D0013C55F87E
:10682C00043D9847002CF9D1BDE8384000F04AB837
:10683C00FC690008F86900082DE9F8431B4D064671
:10684C00286898460F469146FFF7A0FF184B1C6826
:10685C001CB3286865681F2D22DC4EB96B1C0235F1
:10686C00636044F82570FFF793FF0020BDE8F883C0
:10687C00012304EB8501C1F88890D4F88821AB4042
:10688C001A43022EC4F88821C1F80881E6D1D4F845
:10689C008C211A43C4F88C21E0E7064C1C60D8E725
:1068AC00FFF776FF4FF0FF30E0E700BF0C00002051
:1068BC004C05002050050020F8B500BFF8BC08BC02
:1068CC009E467047F8B500BFF8BC08BC9E467047A2
:1068DC00C1C1C10055534152543120524144494F1A
:1068EC002052454144590D0A0000000055534152B5
:1068FC00543220484F535420524541445920524F52
:10690C004C453D534C4156450D0A000055534152E0
:10691C00543320554E555345442052454144590D4E
:10692C000A00000043464720524F4C453D000000F2
:10693C00534C4156452049443D0000002045323817
:10694C003D0000000D0A00004F4B20494420554EDD
:10695C004348414E4745440D0A0000004F4B204927
:10696C00442053415645442000000000455252201B
:10697C00524144494F5F434F4E4649470D0A000070
:10698C0045525220434D440D0A00000002030405F9
:10699C00060708090A0B0C0D0E0F10100000000062
:1069AC003031323334353637383941424344454639
:1069BC00000000004346470030313233343536375F
:1069CC0038394142434445460000000000000000B5
:1069DC000102030400000000000000000102030497
:0469EC000607080989
:0869F000FD6700087541000875
:0469F8004D41000805
:1069FC0000127A0001000000100000004805002081
:020000040801F1
:04FC0000FFFFFFFF04
:040000050800666128
:00000001FF
